:400000000080002011000000710F0000710F000080B500AF00F0B6FF80B500AF314B12221A6003F0E7FE304B180004F061FC012003F0F0FE182003F00FFD2C4B2C4A1A601C
:400040002C4B8022D2051A602B4B2B4A126802210A431A60294B2A4A1A602A4B00221A60294B294A126808218A431A60FA23DB00180003F0E3FD254B180003F05BFE244B5D
:40008000244A1A60244B254A1A60254B254A1A60214B254A1A60254B882292011A601E4B234A1A60234B802212061A60224B00221A60224B42221A60214B41221A60214B30
:4000C00041221A60204B41221A60204B40221A60084B8022D2051A60024B11221A60C046BD4680BD30001040001BB70004010B40060000800C020B4078002E407C002E40BD
:400100002D3E000064F02E406CF02E40DC0500000803014000F157000000014042FF00800403014000AF040041FF00800003014040FF008008010B4000010B403801014079
:4001400030010140280101401C0101400401014080B582B000AF72B64E4B00221A604E4B01221A70FB1D00221A7022E0FB1D1A7813005B009B185B00484A9B183B603B68D7
:400180001A78597809020A43997809040A43DB781B06134318003B681A795B791B0213439BB2190000F07EFEFB1D1A78FB1D01321A70FB1D1B78012BD8D9394A394B1100C9
:4001C000180000F07FFE384BEE2212061A60374B374A1A60374BC02292041A60364BCC2292051A60354B992212041A60344B992212041A60334B992212041A60324B802267
:4002000092051A60314B992212041A60304BE022D2051A602F4B02221A602F4B02221A602E4A2E4B1B78DBB23C218B43DBB214210B43DBB213702A4A294B1B78DBB216214D
:400240000B43DBB21370274BD82212041A60264B6B221A60254B264A1A60264B20221A60254BC0221A60254B8822D2031A60244B802212021A60234BC0221A60224B902268
:4002800092031A60FFF7C8FE00F05EFEC046BD4602B080BD6CF02E401C700F40208B0100548B01002C8B0100000002400001024008009908000202400003024000500F40F0
:4002C00010500F4020500F4028500F4030500F4038500F402000104000800F4001700F4000700F40080004400001044008010440B61DDB00180104400002044008020440E8
:400300000C020440000304400803044010B5064C2378002B07D1054B002B02D0044800E000BF0123237010BD4811002000000000908A0100084B10B5002B03D0074908481A
:4003400000E000BF07480368002B00D110BD064B002BFBD09847F9E7000000004C110020908A0100A80B00200000000080B584B000AF134B1B78022B1ED13B1D14221A819C
:400380003B1D104A1A603B1D01229A800E4A381D0023002113F050FD3B1D17221A813B1D0A4A1A603B1D01229A80074A381D0023002113F041FD00E0C046BD4604B080BD4F
:4003C000F223002094230020042400209023002080B584B000AF02003960FB1D1A703B68DA179B185340FB60FB68642B19DCFB1D1B78002B02D0012B08D00FE0FB6818004F
:4004000003F0E6FF094B3A681A6007E0FB68180004F0AEF8064B3A681A60C046FFF7A6FF00E0C046BD4604B080BDC046942300209023002080B584B000AF0E4B1B78022BAF
:4004400013D10D4B1B68002B10D0391D0B4B1A785B781B021A4300231204120C1B0C1B041343180012F094FA00E0C046BD4604B080BDC046F22300206C1100200424002092
:4004800080B500AF124B1B68002B0FD1002003F097FE002003F06CFE012003F0DDFE012003F0B6FE0A4B01221A600EE0012003F087FE012003F05CFE002003F0CDFE0020AC
:4004C00003F0A6FE024B00221A60C046BD4680BD7C11002080B500AF034B01221A6004F037F9C046BD4680BD6411002080B500AF0F4B1B68002B17D00E4B1B68002B04D00D
:4005000003F02CFF03F0FAFF03E003F015FF03F0E3FF084B1B685A425341DBB21A00054B1A60034B00221A60C046BD4680BDC04678110020AC0B002080B500AF00F00AF8EF
:4005400004F022FE00F08EFB00F018FC00F03AFCF6E7C04680B500AF62B6394B180000F0FFFD384B180004F065F902F08FFF03F07BF803F0E1FE03F0AFFF00210020FFF7E0
:4005800027FF00210120FFF723FFFF2003F004F8FF2003F011F8002003F0ECF804F024F8294B180004F0E8F8062003F015F8062003F02AF8062003F03FF8244B180000F003
:4005C000A3F8234B9B68234A1000190020231A0004F095FD1E4B9B68DB7F1C2B15D81C4B9B68DB7F1A001B4B01219954184B9B68DB7F0133184A1178164AD154144B9B6863
:40060000DB7F0233DAB2134BDA77114B114A9A60802002F0D1FF142003F066FBFF2002F0CBFFFFF763FF03F04DF90C4B180003F0E5F9202003F0FEF9C046BD4680BDC04633
:400640008907000081040000D5040000CC0C00001C0C00209C230020B00B0020948A010080B584B000AF78600A00FB1C1A70FB1C1B78022B28D10F23FB187A6812781A70ED
:400680007B685A1C0E23FB1812781A700F23FB181B7819000020FFF79BFE0E23FB181B7819000120FFF794FE0F23FB181B78DB43DBB2180002F070FF0E23FB181B78DB435F
:4006C000DBB2180002F078FFC046BD4604B080BD80B582B000AF0200FB1D1A70FB1DFA1D12781A70C046BD4602B080BD80B582B000AF0200FB1D1A70FB1DFA1D12781A7000
:40070000C046BD4602B080BD80B582B000AF786003F0CAFB0121002003F008FC0121002003F032FC7B681900002003F093FC5A2003F000FB012003F05DFC03F08BFB044B44
:40074000180003F037F8C046BD4602B080BDC0465507000080B500AF03F08EF803F0C2FC02000423134009D0042003F0C9FC054B1B889BB201339AB2024B1A80C046BD46F6
:4007800080BDC0469823002090B597B000AF786039607B682B2B00D147E20FD8262B23D005D8012B1CD0202B00D1DAE04AE2272B00D1B8E1282B00D113E243E24C2B24D0B5
:4007C00005D8412B1ED0422B00D130E23AE24D2B00D1F9E189225200934200D1C8E131E2002000F055FD2DE2E34B1B78062B00D01FE2E24B1B78002B00D01AE2002000F0D9
:4008000047FD16E2FFF716FE1CE24823FB183A6813CA13C312681A604823FB189B89142B2AD14823FB185B681B781A00D44B1A60D44B180003F0E2F8D14B1B68DBB2180002
:40084000FFF746FF202003F0F5F8CD4B1B6819000020FFF7BDFDCC4A4823FB18181D0023002113F0E9FAC94B1B780133DAB2C74B1A70C24B01221A704823FB189B89172B05
:400880002AD14823FB185B681B781A00C04B1A60C04B180003F0B2F8BD4B1B68DBB21800FFF716FF202003F0C5F8B94B1B6819000120FFF78DFDB44A4823FB18181D0023CA
:4008C000002113F0B9FAB14B1B780133DAB2AF4B1A70AA4B01221A704823FB189B890E2B30D14823FB181B89022B22D14823FB185B681A78A84B1A704823FB185B685A782B
:40090000A54B5A70A44B02211800FFF7A9FE9E4A4823FB18181D0023002113F08DFA9B4B1B780133DAB2994B1A70944B01221A7008E04823FB189B890D221900122000F0A6
:400940007DFA7FE1904B1A785B781B021A4300231204120C1B0C1B041343180012F064F870E1854B1B78022B00D164E12823FB183A6813CA13C303CA03C32823FB181B784F
:40098000002B58D12823FB181A7A844BDB7F9A4251D12823FB18DA682823FB181B7A023BD3181B78012B46D12823FB18DA682823FB181B7A013BD3181A78744B1B789A42BF
:4009C0000ED32823FB18DA682823FB181B7A013BD3181B78642B16D16C4B1B78002B12D16F4B01221A702823FB185B686D4A1000190006231A0004F082FB2823FB185A78AF
:400A0000694B1A7017E0664B00221A70664B00221A70644B00221A70624B00225A70614B00229A705F4B0022DA705E4B00221A715C4B00225A712823FB181B78042B00D00B
:400A4000F9E02823FB181B7A142B00D0F3E0544B1B78002B00D1EEE02823FB185B6851490622180004F03CFB031E00D0E3E02823FB185A784C4B1B789A4200D0DBE02823E6
:400A8000FB18D8682823FB181B7A1A00474B190004F026FB031E00D0CDE0454B180002F0ADFF2823FB181B7A1800FFF71FFE202002F0C0FF00F0ECFC3E4B180002F09EFF1B
:400AC000202002F0B7FF2823FB185A783A4B9A712823FB185B681A78374B1A702823FB185B685A78344B5A702823FB185B689A78314B9A702823FB185B68DA782E4BDA7064
:400B00002823FB185B681A792B4B1A712823FB185B685A79284B5A71284B01221A70204B00221A7087E0264B1B78022B00D084E0244B01221A700C23FB180E221A810C2373
:400B4000FB18154A1A600C23FB1802229A800C23F9180D4B1A785B781B021A4300231204120C1B0C1B041343180011F011FC64E0002000F08DFB65E0F22300208011002072
:400B800094230020E48A010004240020B00B002090230020F08A0100CC2300209C23002081110020C423002082110020B40B0020FC8A01000C8B0100BC2300208311002073
:400BC000C80B002084110020204B1B78002B36D01E4B1B78180010F03FF91D4B01221A702DE01C4B00221A701B4B1B78012B0BD11A4B1B78012B07D0194B1B78062B13D195
:400C0000002000F045FB0FE0134B1B78022B18D1124B1B78012B14D0114B1B78062B10D1002000F0E3FB0CE00BE0C0460AE0C04608E0C04606E0C04604E0C04602E0C04606
:400C400000E0C046BD4617B090BDC046042400208511002084110020C80B002080110020F223002090B583B000AF3A4B1B78012B00D06BE004F088FA374B1B78002B06D0D3
:400C8000354B1B78180010F0E7F804F07DFA334B1B78012B02D0022B28D057E0304B1B78032B03D100F05EFB04F06EFA2C4B1B78062B18D1BC1D002000F098FB0300238059
:400CC000BB1D1B88002B0BD1264B1B889AB2264B1A80224B02221A701E4B00221A7002E01E4B01221A7004F04FFA2FE01C4B1B78042B03D100F0CCFB04F046FA184B1B78B5
:400D0000062B20D1194BDB7F013B194A1178174AD154184B154A9A60BC1D002000F0B8FA03002380BB1D1B88002B09D10B4B01221A70114B00221A70064B00221A7002E0BE
:400D4000064B02221A7004F01FFAC046C046BD4603B090BD8011002004240020C80B0020F223002098230020861100209C230020B00B00201C0C00208311002090B583B077
:400D800000AF0D4B1B78002B11D004F0FDF90B4B1B78062B0BD1084B00221A70BC1D084B180000F087FB0300238004F0EDF9C046BD4603B090BDC04683110020F223002080
:400DC000BC23002080B500AF164B1B78022B15D1154B1B889BB21A00144B1B889BB2D31A2D2B0BDD124B1B78062B03D0104B1B78042B03D10F4B01221A7011E00E4B1B785A
:400E0000002B0DD004F0C0F9094B1B78062B07D1094B00221A70002000F0E8FA04F0B4F9BD4680BDC80B00209823002086110020F2230020801100208511002090B585B09F
:400E400000AF040008001100FB1D221C1A703B1D021C1A80BB1D0A1C1A700C23FB18FA1D12789A700C23FB183A1D12881A800C23FB18BA1D1278DA700C23F918084B1A7862
:400E80005B781B021A4300231204120C1B0C1B041343180011F03EFDC046BD4605B090BD0424002080B582B000AF786039603A687B680021180004F02BF9C046BD4602B033
:400EC00080BDC04680B586B000AF7860396000233B6100237B612FE07B699B007A68D3181B68BB600F23FB18BA681A70BB68FF229343BB6018E03B695B003A68D3181B7830
:400F00001A00BB68D31819003B695B003A68D3185B780B703B6901333B610F23FB181A780F23FB18013A1A700F23FB181B78002BE1D17B6901337B617B69092BCCD9C046D5
:400F4000BD4606B080BDC04680B500AF054B03221A60054B03221A60044B00221A60C046BD4680BD3000304030003140000E3F4080B500AF04F088F803001B680C2B00D1CE
:400F8000FEE7FEE780B586B000AF224B7B61224B3B61204B7B6135E03B691B68FB603B695B68BB603B699B683B6000237B600CE0FB681A68BB681A60BB680433BB60FB6815
:400FC0000433FB607B6804337B607A683B689A42EED13B69DB683B6000237B6008E0BB6800221A60BB680433BB607B6804337B607A683B689A42F2D13B6910333B617B692E
:40100000013B7B617B69002BC6D104F043F8FFF793FAFEE7010000000092010080B582B000AF154B144A126801218A431A6000237B600FE07B68032B04D8104B7A68920067
:40104000D35800E00E4B0F4A796889008B507B6801337B607B682F2BECD9FFF779F80A4B00221A60044B044A126801210A431A60C046BD4602B080BD0000104000000000DA
:40108000710F000000000020C000002080B500AF1B4B00221A701B4B00221A701A4B00221A701A4B00221A70194B5A88194B1A80174B9A88174B5A80154B9A79154B1A7322
:4010C000134BDA79134B1A71124B0822DA81114B0A221A820F4B00225A820E4B64229A820C4B0022DA820B4B012252421A830A4B1E221A8000F012F8C046BD4680BDC04609
:4011000019240020002400201724002016240020300C0020D4230020EE23002080B500AF0C4B1B88002B05D10B4B0E220021180003F0EEFF074BDB88002B05D1074B062207
:401140000021180003F0E4FF01F016FEC046BD4680BDC046140D002008240020F8230020B0B594B004AF78603E23FB1800221A802823FA183E4B1000190014231A0003F090
:40118000BEFF3C4B1B78002B04D1FFF77FFF394B01221A707B68002B5FD0374B7A681A603E23FB181B88002B29D11023FB181C22BA185A601023FB182022BA181A60102345
:4011C000FB1800221A812023FB181B221A802023FB181B225A802023FB1804221A711C23FB1808221A703E23FC180E23FA181023FB181100180004F0A3F8030023803E23BB
:40120000FB181B88002B2CD13E23FC182823FD18AE231A0119491A480023029300230193052300932B0003F0E1FF030023803E23FB181B88002B14D1124B01221A70124BEF
:4012400008221A703E23FC18104B0F221821180012F0DAFD0300238003E03E23FB1801221A803E23FB181B881800BD4610B0B0BD448D010088110020D0230020C8000020F0
:40128000AD1B0000F2230020F3230020C08D010090B585B000AF0200FB1D1A70FB1D1B78022B04D90E23FB1801221A804AE0294B1B78062B41D1284B1B78DBB21A000423E2
:4012C00013403AD1FB1D1B78002B0BD1234B1E221A82224B5B6820221A80204B5B6830225A8010E0FB1D1B78012B0CD11B4B96221A821A4B5B68C822D2001A80174B5B682D
:401300008022D2015A80164BFA1D12781A700E23FC18124B180010F03DF9030023800E23FB181B88002B0DD10B4B1B78DBB204221343DAB2084B1A7004E00E23FB180422A3
:40134000FF321A800E23FB181B881800BD4605B090BDC046F2230020192400201C0C00201724002080B500AF10F0ACF9054B1B78DBB208221343DAB2024B1A70C046BD467E
:4013800080BDC0461924002080B584B000AF78600A00FB1C1A700023BB60BB68002B20D07B689A79BB681A700F23FB1800221A7012E00F23FB181B780133BA68D3180F22A6
:4013C000BA18127879688A5C1A700F23FB181A780F23FB1801321A700F23FB181B78052BE7D9C046BD4604B080BDC04690B585B000AF0200FB1D1A70FB1D1B78022B04D91D
:401400000E23FB1801221A8035E0FB1D1B78002B09D11C4B08221A811A4B30225A80194B20229A800EE0FB1D1B78012B0AD1154B96221A81134B802212015A80114BE122CA
:40144000D2009A80104BFA1D12781A700E23FC180C4B180010F024F8030023800E23FB181B88002B07D1094B1B78DBB204221343DAB2064B1A700E23FB181B881800BD4641
:4014800005B090BD300C0020162400201924002080B500AF10F02EF8054B1B78DBB208221343DAB2024B1A70C046BD4680BDC0461924002090B585B000AF7860294B1B7809
:4014C000062B05D00E23FB180422FF321A8041E07B68002B04D10E23FB1801221A8039E00D23FB1800221A7012E00D23FB181B780D22BA1812787968895C1B4AD3180A1C15
:401500005A710D23FB181A780D23FB1801321A700D23FB181B78052BE7D97B689A79124BDA720E23FC18104B18000FF067FF030023800E23FB181B88002B0BD1094B05227A
:401540001A700A4B1B88002B04D0084B1B8818000CF0C2FE0E23FB181B881800BD4605B090BDC046F2230020D4230020EE23002090B583B000AF104B1B78052B04D0BB1DA8
:401580000422FF321A8011E0BC1D0FF02DFF030023800A4B1B88002B01D00CF0B7FEBB1D1B88002B02D1044B06221A70BB1D1B881800BD4603B090BDF2230020EE23002084
:4015C00080B582B000AF78607B681B789AB27B6801331B789BB21B029BB213439BB21800BD4602B080BDC04690B585B000AF78600F23FB1800221A707B689B890B2293422C
:4016000032D17B68181D7A680F23FC184023002112F012FC030023700F23FB181B78002B1AD17B685B681800FFF7CAFF03001A00022313409BB2002B07D00F4B1B68796830
:40164000822252001000984706E00B4B1B6879680622FF3210009847084B1B78DBB201229343DAB2054B1A700F23FB181B781800BD4605B090BDC046D02300201924002060
:4016800080B582B000AF78607B68DB880D4A934214D10D4B5B88002B08D17B689A880A4B5A807B689A78084B1A7007E0074B1B687A68911D8622520010009847C046BD4662
:4016C00002B080BD052A0000F8230020D023002080B582B000AF78607B689B880B4A934210D10B4B9B88002B04D17B685A88084B9A8007E0074B1B687A68111D862252000E
:4017000010009847C046BD4602B080BD02290000F8230020D023002080B582B000AF78600C4B5A887B689B899A420ED10A4B1B6879688322520010009847084B1B78DBB24E
:4017400001229343DAB2054B1A70C046BD4602B080BDC046F8230020D02300201924002090B585B000AF78600F23FC187B681800FFF73AFF03002370154B1B78DBB21A00C0
:40178000012313401FD10F23FB181B78002B16D00823FB1812229A707B689A890823FB181A800823FB180F22BA181278DA700823FA187B681100186811F0ACF803E07B684E
:4017C000186811F031F9C046BD4605B090BDC0461924002080B582B000AF7860C046BD4602B080BD80B582B000AF7860C046BD4602B080BD80B582B000AF7860C046BD460D
:4018000002B080BD80B582B000AF7860C046BD4602B080BD80B588B000AF7860394B1B78022B6AD1384B1B88002B66D00823F918354B022208009B180422190003F05FFCB1
:401840007B6859687B681B891A000823FB180433180003F054FC0823FB18180001F000FB294B1B8801339AB20823FB181A80274B1B781900264A0B005B005B185B00D318F5
:4018800002331A880823FB185A800823FB181A880823FB185B889A4221D80823F9181D4B1A785B781B021A4300231204120C1B0C1B041343180010F0E7FC031E12D0164B8E
:4018C0001B6884225200002110009847134B1B78DBB202229343DAB2104B1A7002E0012000F0BCFC0D4B1B78DBB201229343DAB20A4B1A70044B00221A80C046BD4608B021
:4019000080BDC046F32300208C11002018240020140D002004240020D02300201924002080B588B000AF7860394B1B78022B6AD1384B1B88002B66D00823F918354B022242
:4019400008009B180422190003F0D9FB7B6859687B681B891A000823FB180433180003F0CEFB0823FB18180001F07AFA294B1B8801339AB20823FB181A80274B1B781900D0
:40198000264A0B005B005B185B00D31802331A880823FB185A800823FB181A880823FB185B889A4221D80823F9181D4B1A785B781B021A4300231204120C1B0C1B0413435D
:4019C000180010F061FC031E12D0164B1B6884225200002110009847134B1B78DBB202229343DAB2104B1A7002E0012000F036FC0D4B1B78DBB201229343DAB20A4B1A7099
:401A0000044B00221A80C046BD4608B080BDC046F32300208C11002018240020140D002004240020D02300201924002080B500AF094B00225A70084B00221A70074B1B7847
:401A4000052B03D1054B07221A7002E0034B08221A70C046BD4680BD04240020F323002080B582B000AF78607B681B78032B3ED1264B1B78DBB21A000223134037D0244B7D
:401A80001B78022B10D002DC012B05D024E0032B12D0042B18D01FE01E4B1B680822FF3200211000984717E01A4B1B68842252000021100098470FE0164B1B680A22FF320F
:401AC00000211000984707E0124B1B6885225200002110009847C0460C4B1B78DBB202229343DAB2094B1A70094B00221A707B681B78042B05D1084B1B78052B01D1FFF7CC
:401B000037FDC046BD4602B080BDC04619240020F3230020D0230020F223002080B500AFC046BD4680BDC04680B584B000AF78600E23FB1800221A707B689B79002B1CD179
:401B40000F23FB1800221A7012E00F23FB181B787A68D35C002B04D00E23FB1801221A700BE00F23FB181A780F23FB1801321A700F23FB181B78052BE7D90E23FB181B7846
:401B80001800BD4604B080BD80B582B000AF0200BB1D1A80C046BD4602B080BD80B582B000AF7860C046BD4602B080BD80B588B000AF02003960FB1D1A70D44B1B78DBB219
:401BC00001221343DAB2D14B1A70FB1D1B78712B00D919E29A00CE4BD3181B689F461023FB1807221A701023FB1800225A701023FB18180005F0B4FA1023FB1807221A70F4
:401C00001023FB1801225A701023FB18180005F0A7FA0023002B01D003F0AEFABD4B1B681800FFF781FF031E11D0BA4B1B68180003F0AEFAB74B1B6800211800FFF7A4FB1A
:401C4000B44B1B6801211800FFF79EFB36E0B24B1B781A003F231A40B04B1B789901FC231B010B401A43AE4B1B781903F8235B020B401A43AB4B1B785904FE231B040B4059
:401C80001343BB61BB69DAB2A74B1A70BB691B0ADAB2A54B5A70BB691B0CDAB2A24B9A70A14B180003F074FA9F4B00211800FFF76BFB9D4B01211800FFF766FB03200FF0AA
:401CC00075FA0C23FB183F221A700C23FB1800225A700C23FB1818000FF086FA934B06221A709CE13B681800FFF7BAFE97E13B681A788F4B1A7092E13B687B617B691B7851
:401D0000002B00D082E17B695B78002B0BD1894B0022DA80874B00229A80864B864A1A607B69844A5A60794B1B78DBB201229343DAB2764B1A7069E1744B1B78DBB21A00AB
:401D40002023134000D063E17C4B1B78102B02D17A4B0522DA707A4B1B78784A110018000FF0DAFB03001A000A23FB181A800A23FB181B88002B06D0724B1B680A22BA18EB
:401D8000110036209847614B1B78DBB201221343DAB25E4B1A706A4B1B78684A110018000EF0A6FF34E13B681800FFF7F7FE36E13B681800FFF7F2FE634B1B88002B01D053
:401DC0000CF0A4FA594B02221A7028E1574B06221A7024E1554B1B78022B00D11AE14B4B1B78DBB21A000123134000D112E1474B1B78DBB21A00042313400BD04B4B032282
:401E00001A70424B1B78DBB204229343DAB23F4B1A70FFE03D4B1B78DBB21A00082313400BD0424B06221A70384B1B78DBB208229343DAB2354B1A70ECE03C4B1B78032B49
:401E400000D0E7E0394B06221A70E3E0374B1B78022B00D1E0E02D4B1B78DBB21A000123134000D1D8E0294B1B78DBB21A00042313400BD02D4B04221A70244B1B78DBB293
:401E800004229343DAB2214B1A70C5E01F4B1B78DBB21A00082313400BD0244B06221A701A4B1B78DBB208229343DAB2174B1A70B2E01E4B1B78042B00D0ADE01B4B06223C
:401EC0001A70A9E03B681B881800FFF75DFEA6E01B4A3B681000190002231A0003F00FF9134B00221A70194B00221A70FFF716FE95E0FFF79BFD92E03B685B88162B27D8D0
:401F00001E23FB183A6852881A8025E019240020AC8F0100440C00207CF2FF0F7DF2FF0F7BF2FF0F78F2FF0F3C0C0020F223002000240020A4110020A80B0020280D00205F
:401F400004240020D0230020EE230020F32300201E23FB1817221A801E23FB1819883B681A8800231204120C1B0C1B041343180010F0DAFC53E03B681800FFF7F1FB4EE05F
:401F80003B681800FFF726FC49E03B68180000F065F844E03B68180000F098FA3FE000F083FE3CE03B68180000F02AFD37E03B68180000F0C9FE32E03B681800FFF71AFCDC
:401FC0002DE03B681800FFF7A7FB3B681800FFF719FC204B1B78DBB21A00012313401DD13B68186810F016F918E03B681800FFF711FC14E03B681800FFF792FC0FE03B6804
:402000001800FFF7EFFB0AE0C04608E0C04606E0C04604E0C04602E0C04600E0C0460D4B1B78DBB21A00112313400ED0094B1B78DBB201229343DAB2064B1A70064B1B6887
:40204000FA1D1278396810009847C046BD4608B080BDC04619240020D023002080B586B000AF78600023FB60774B1B78012B00D0E6E0764B1B78DBB21A000223134000D1F0
:40208000DEE00A23FB187A6812891A800A23FB181B88062B05D00A23FB181B88142B00D0C7E00823FB187A6852891A801423FB1800221A80ABE07B685A681423FB181B88D1
:4020C000D318FB601323FB1800221A70FB681A885F4B1B889A4200D27CE0FB681A885C4B5B889A4200D975E00A23FB181B88062B00D068E0FB6801221A751623FB18002201
:402100001A8055E01623FB181A88524913005B009B185B00CB1804331A88FB689B889A423FD11623FB181A884A4913005B009B185B005B5A002B13D11623FB181A88454960
:4021400013005B009B185B00FA68CB1811000422180002F0D4FF1323FB1801221A7020E01623FB181B88012B0FD81623FB181B885A1C384913005B009B185B00CB18043316
:402180001A88FB689B889A420BD0334B1B68FA68111D0C22FF32100098471323FB1801221A701623FB181A881623FB1801321A801623FB181B88022B0CD81323FB181B7888
:4021C000002B9FD006E0FB6802221A75FB68180000F046FE1323FB181B78002B0DD11B4B1B78DBB21A000123134006D01A4B1B68F9681222FF32100098471423FB181422AB
:40220000B9180A22BA18098812888A181A801423FA180823FB1812881B889A4200D24AE70A4B1B78DBB201229343DAB2074B1A7006E0094B1B680822FF32002110009847C7
:40224000C046BD4606B080BDF323002019240020F4230020140D0020D023002080B582B000AF0200FB1D1A70FB1D1B78002B06D0344B1B780133DAB2324B1A700CE0314B9D
:4022800000221A70304B00221A8005E02D4B1B780133DAB22B4B1A702A4B1B78022B19D8284B1B781900294A0B005B005B185B009A5A274B1B889A42E8D3224B1B781900E6
:4022C000224A0B005B005B185B009A5A204B5B889A42DBD81B4B1B78022B28D8194B1B781A0013005B009B185B00184A9918194B1A785B781B021A4300231204120C1B0CE6
:402300001B04134318000FF0BFFF031E15D0124B1B68842252000021100098470F4B1B78DBB202229343DAB20C4B1A7005E00C4B03221A70002000F0ADFAC046BD4602B027
:4023400080BDC046182400208C110020140D0020F423002004240020D023002019240020F323002080B582B000AF78607B68DB884F4A934200D184E04D4A93420BDC4D4ADA
:40238000934224D04B4A934200DD68E0A822920193420AD087E0484A93423CD0474A93424BD0474A934224D07DE0464B1B88002B04D17B689A88434B1A8074E0424B1B68E2
:4023C0007A68911D86225200100098476BE03D4B5B88002B04D17B689A883A4B5A8062E0394B1B687A68911D862252001000984759E0344B1B89002B04D17B689A88314BAB
:402400001A8150E0304B1B687A68911D862252001000984747E02B4B5B89002B04D17B689A88284B5A813EE0274B1B687A68911D862252001000984735E0224B9B89002B29
:4024400004D17B689A881F4B9A812CE01E4B1B687A68911D862252001000984723E0194B9B88002B04D17B689A88164B9A801AE0154B1B687A68911D86225200100098472C
:4024800011E0104BDB88002B04D17B689A880D4BDA8007E00C4B1B687A68911D8622520010009847C046C046BD4602B080BDC046032A0000012A0000A62A0000C92A00005D
:4024C000042A000008240020D023002090B593B000AF7860D44B1B78DBB21A000223134000D1D1E13E23FB187A6812891A803C23FB187A6852891A807B685B683B64CB4B3D
:402500001B78032B00D0C7E04623FB1800221A80B8E03B6C1800FFF753F803001A002423FB181A803B6C02333B643B6C1A782423FB189A703B6C01333B643B6C1800FFF73B
:402540003FF803001A002423FB189A803B6C02333B643E23FB181B88152B33D12423FB1802229A752423FB180622396C9B181022180002F0C4FD3B6C10333B64AC4B1B7846
:402580001900AC4A0B005B005B185B00D31804331B881A00A84B9A425DD0A54B1B78012B5BD9A34B1B78022B57D8A14B1B789BB2023B9BB22422BA181100180000F0B8FC02
:4025C000C0464AE03E23FB181B88072B48D12423FB1801229A753B6C1800FEF7F1FF03001A002423FB18DA803B6C02333B64904B1B7819008F4A0B005B005B185B00D3184E
:4026000004331B88C0225201934203D08B4A934206D00BE02423FB181800FFF7A3FE1FE02423FB181800FFF72BF819E0804B1B78012B14D97E4B1B78022B10D87C4B1B78AA
:402640009BB2023B9BB22422BA181100180000F06FFCC04603E0C04602E0C04600E0C046714B1B78DBB201229343DAB26E4B1A704623FB184622B9183E22BA180988128874
:402680008A181A804623FA183C23FB1812881B889A4200D23DE7F7E0644B1B78022B00D0F2E04623FB1800221A80E4E03B6C1800FEF786FF03001A000C23FB181A803B6C25
:4026C00002333B643B6C1800FEF77AFF03001A000C23FB185A803B6C02333B643B6C1800FEF76EFF03001A000C23FB189A803B6C02333B643E23FB181B88062B30D10C2398
:40270000FB1802229A750FF03DFE0C23FB1859884B4B1A785B781B021A4300231204120C1B0C1B04134318000FF0CCFD031E07D1444B0C22BA1813CA13C313CA13C388E058
:40274000414B1B6884225200002110009847364B1B78DBB202229343DAB2334B1A7078E03E23FB181B88082B00D072E00C23FB1801229A753B6C1800FEF722FF03001A00E9
:402780000C23FB18DA803B6C02333B644423FB1800221A8033E04423FB181A88254913005B009B185B00CB1804331A880C23FB18DB889A421CD14423FB181A881D491300F4
:4027C0005B009B185B005B5A002B11D14423FB181A88184913005B009B185B000C22BA180220CB1811180422180002F088FC0BE04423FB181A884423FB1801321A8044231E
:40280000FB181B88022BC6D9094B1B781900094A0B005B005B185B00D31804331B881A000A4B9A4214D014E019240020F323002018240020140D0020FEFF00000118000061
:40284000042400208C110020D023002012180000C0460F4B1B78DBB201229343DAB20C4B1A704623FB184622B9183E22BA18098812888A181A804623FA183C23FB1812885B
:402880001B889A4200D211E7C046BD4613B090BD1924002080B582B000AF0200FB1D1A70FB1D1B78002B06D0354B1B780133DAB2334B1A7009E0324B00221A7005E0304BA6
:4028C0001B780133DAB22E4B1A702D4B1B78022B19D82B4B1B7819002A4A0B005B005B185B009A5A284B1B889A42E8D3244B1B781900244A0B005B005B185B009A5A224BD0
:402900005B889A42DBD81E4B1B78022B2DD81C4B1B781A001B4913005B009B185B001B4A585ACB185B881B04034319001378527812021A4300231204120C1B0C1B041343EF
:4029400018000FF085FC031E15D0114B1B680A22FF320021100098470E4B1B78DBB202229343DAB20B4B1A7005E00B4B04221A70002000F0E9F8C046BD4602B080BDC046B4
:4029800018240020140D0020F423002004240020D023002019240020F323002080B582B000AF3B0000221A803B0000225A80114B1B78002B09D1104B5B8801339AB23B0024
:4029C0001A800E4B1A893B005A803B1D3A0012681A603A1D002311880904090C1B0C1B040B43528812041B041B0C13431800BD4602B080BD18240020F8230020140D00206F
:402A000080B58AB000AF78600823FB1800225A804A4B1B78042B00D08BE0494B1B78DBB21A000223134000D183E01E23FB187A6812891A807B681A7B0823FB181A7508237F
:402A4000FB187A6812881A800823FB181B7D012B04D12623FB1804221A8003E02623FB1812221A807B685B683B622423FB1800221A804EE03B6A1800FEF7A2FD03001A0038
:402A80000823FB185A803B6A02333B620823FB181B7D022B15D10823FB183A6A043311001022180002F02BFB3B6A10333B62254B1B78012B23D10823FB18180000F0FEFB2B
:402AC0001DE03B6A1800FEF77BFD03001A000823FB189A803B6A02333B621A4B1B78002B04D10823FB181800FEF7F2FD154B1B78012B04D10823FB18180000F0DFFB242336
:402B0000FB182422B9182622BA18098812888A181A802423FA181E23FB1812881B889A42A8D3074B1B78DBB201229343DAB2044B1A70C046BD460AB080BDC046F32300209D
:402B4000192400201824002080B584B000AF0200FB1D1A700C23FB1800221A800C23FB1800225A804A4B1B78012B17D0FB1D1B78002B0DD0464B1B780133DAB2444B1A70B9
:402B8000434B1B78012B09D1FB1D00221A7005E03F4B00221A70FB1D01221A703C4B1B78012B0CD1FB1D1B78180000F0C5FA03001A000C23FB181A60FB1D01221A70344B98
:402BC0001B78012B06D0FFF7E9FE03001A000C23FB181A600C23FB181A882E4B1B889A4215D90C23FB181A882A4B5B889A420ED80C23FB185A88274B1B889A4207D30C23A4
:402C0000FB181A880C23FB185B889A4203D9204B1B78012BA6D91E4B1B78012B21D80C23F9181D4B1A785B781B021A4300231204120C1B0C1B04134318000FF0F3FA031E99
:402C400021D0164B1B6885225200002110009847134B1B78DBB202229343DAB2104B1A7011E0104B05221A700C4B1B68892252000021100098470A4B1B78DBB2022293433A
:402C8000DAB2074B1A70C046BD4604B080BDC04618240020F423002004240020D023002019240020F323002080B500AF244B1B78DBB21A00022313403FD0224B1B78022BEA
:402CC00017D002DC012B05D037E0032B1DD0042B27D032E01B4B02221A700020FFF7BEFA174B1B78DBB201229343DAB2144B1A7023E00120FFF7B2FA114B1B78DBB201226D
:402D00009343DAB20E4B1A7017E00120FFF7C2FD0B4B1B78DBB201229343DAB2084B1A700BE00120FFF710FF054B1B78DBB201229343DAB2024B1A70C046C046BD4680BD80
:402D400019240020F323002080B582B000AF7860084B1B78DBB21A000223134005D07B689B790A2B01D1FFF79FFFC046BD4602B080BDC0461924002080B582B000AFBB1D1D
:402D800000221A8060E0BB1D1B889A1C324913005B009B185B005B5A002B50D13B1D00221A8040E0BB1D1B882C4A1B01D3180C331A683B1D1B881B01D31800221A80BB1C6C
:402DC00000221A8019E0BB1D1B88244A1B01D3180C331A683B1D1B881B01D318D968BB1C1A8813005B009B189B00CB1800221A80BB1C1A88BB1C01321A80BB1D1B88174A5D
:402E00001B01D3180C331A683B1D1B881B01D3189B7A9BB2BA1C12889A42D4D33B1D1A883B1D01321A80BB1D1B880C4A1B01D31809331B789BB23A1D12889A42B2D3BB1D36
:402E40001A88BB1D01321A80BB1D1B88002B9AD0C046BD4602B080BD140D00204C0D002080B584B000AF78600D23FB1800221A700E23FB1800221A8046E00E23FB181B885D
:402E8000284A1B01D31808331B78022B35D10E23FB181B88234A1B01D318043318687B6804331022190002F01BF9031E25D10E23FB181B889A1C1C4913005B009B185B0086
:402EC0005B5A002B19D10E23FB181B889A1C164913005B009B185B007A68CB1811000422180002F00CF9114B1B780133DAB20F4B1A700D23FB1801221A700E23FB181A881C
:402F00000E23FB1801321A800E23FB181B88002B04D10D23FB181B78002BAED0C046BD4604B080BD4C0D0020140D00201824002080B584B000AF02003960BB1D1A800D23B5
:402F4000FB1800221A70774B1B68002B0FD0764B1B88BA1D12889A4206D1724B1B683A681288013A92B21A806E4B00221A600E23FB1800221A80ABE00C23FB1800221A7058
:402F80003B689B7D022B27D1BB1D1B88674A1B01D3180C331A680E23FB181B881B01D3181B7A022B18D1BB1D1B88604A1B01D3180C331A680E23FB181B881B01D318586809
:402FC0003B6806331022190002F08AF8031E03D10C23FB1801221A703B689B7D012B27D1BB1D1B88514A1B01D3180C331A680E23FB181B881B01D3181B7A012B18D1BB1D25
:403000001B884A4A1B01D3180C331A680E23FB181B881B01D31858683B6806330222190002F05EF8031E03D10C23FB1801221A700C23FB181B78012B43D1BB1D1B883B4A89
:403040001B01D3180C331A680E23FB181B881B01D3181B88002B34D1BB1D1B88334A1B01D3180C331A680E23FB181B881B01D3183A6892881A80BB1D1B882C4A1B01D318CB
:403080000C331A680E23FB181B881B01D3183A6892785A72BB1D1B88244A1B01D3180C331A680E23FB181B881B01D3189A1C1D4B1A601D4BBA1D12881A800D23FB180122D9
:4030C0001A700E23FB181A880E23FB1801321A80BB1D1B88154A1B01D31809331B789BB20E22BA1812889A4205D20D23FB181B78002B00D140E70B4B1B68002B0DD0094BD5
:403100001A680B4B1B7818000A4903005B001B185B00CB1802331B881380C046BD4604B080BDC046B0110020B41100204C0D002018240020140D002080B584B000AF020089
:40314000FB1D1A700823FB1800221A800823FB1800225A80FB1D1B78002B2DD0524B1B880133524A1288524912018A1809321278934206D24C4B1B8801339AB24A4B1A8051
:4031800023E04A4B1B88013309D1484B1B8801339AB2464B1A80444B00221A8015E0454B1B780133DAB2434B1A703F4B1B8801339AB23D4B1A8008E03C4B00221A803A4B2B
:4031C00000221A80FB1D01221A70384B1B88384A1B01D31809331B789AB2334B1B889A421FD9324B1B88324A1B01D3180C331A682D4B1B881B01D3181B8801339AB20823BB
:40320000FB181A80294B1B88294A1B01D3180C331A68254B1B881B01D3185A880823FB185A800823FB181A88234B1B889A4215D90823FB181A88204B5B889A420ED80823A5
:40324000FB185A881C4B1B889A4207D30823FB181A880823FB185B889A420CD9134B1B88134A1B01D31809331B789AB20E4B1B889A4200D96EE70C23FB180822BA18126899
:403280001A600C23FA18002311880904090C1B0C1B040B43528812041B041B0C13431800BD4604B080BDC046AE110020AC1100204C0D002018240020F423002080B584B012
:4032C00000AF78600E23FB1800221A700F23FB1800221A70B9E00D23FB1800221A707B681B7D022B37D1664B1B88664A1B01D3180C331A68644B1B881B01D318D9680F2396
:40330000FB181A7813005B009B189B00CB181B7A022B20D15A4B1B885A4A1B01D3180C331A68594B1B881B01D318D9680F23FB181A7813005B009B189B00CB1858687B683A
:4033400004331022190001F0CBFE031E03D10D23FB1801221A707B681B7D012B37D1484B1B88484A1B01D3180C331A68464B1B881B01D318D9680F23FB181A7813005B002C
:403380009B189B00CB181B7A012B20D13C4B1B883C4A1B01D3180C331A683B4B1B881B01D318D9680F23FB181A7813005B009B189B00CB1858687B6804330222190001F0C3
:4033C0008FFE031E03D10D23FB1801221A700D23FB181B78012B31D1294B1B88294A1B01D3180C331A68284B1B881B01D318D9680F23FB181A7813005B009B189B00CB1831
:403400001B88002B1AD11E4B1B881E4A1B01D3180C331A681C4B1B881B01D318D9680F23FB181A7813005B009B189B00CB187A6852881A800E23FB1801221A700F23FB1843
:403440001A780F23FB1801321A700D4B1B880D4A1B01D3180C331A680B4B1B881B01D3189B7A0F22BA1812789A4205D20E23FB181B78002B00D12EE7C046BD4604B080BD67
:40348000AC1100204C0D0020AE11002080B500AF064B1B78002B04D100F00AF8034B01221A7000F03FF8C046BD4680BDB611002090B583B000AFFF2000F044F8B82000F094
:4034C0005BF8012000F068F8012000F075F8FC1D01F017FA03002370104A104B1B78DBB201210B43DBB21370FB1D1B78180001F00CFA0B4A0A4B1B78DBB202218B43DBB282
:403500001370074A064B1B78DBB204218B43DBB21370C046BD4603B090BDC04690000F4070000F4080B500AF054A054B1B78DBB201210B43DBB21370C046BD4680BDC04627
:4035400070000F4080B582B000AF0200FB1D1A70FB1D1B78002B07D0054AFB1D1B781370044AFB1D1B781370C046BD4602B080BD40000F4000000F4080B582B000AF02003E
:40358000FB1D1A70034AFB1D1B781370C046BD4602B080BD10000F4080B582B000AF0200FB1D1A70034AFB1D1B781370C046BD4602B080BD20000F4080B582B000AF0200E3
:4035C000FB1D1A70034AFB1D1B781370C046BD4602B080BD30000F4080B582B000AF0200FB1D1A70064B064A126806491140FA1D127892040A431A60C046BD4602B080BDCC
:4036000008020440FFFFE3FF80B582B000AF0200FB1D1A70064B064A126806491140FA1D127892040A431A60C046BD4602B080BD08030440FFFFE3FF80B582B000AF0200AA
:40364000FB1D1A70064B064A126806491140FA1D127852050A431A60C046BD4602B080BD08030440FFFF1FFF80B500AF064B1B78002B04D100F00AF8034B01221A7000F026
:403680003FF8C046BD4680BDB711002090B583B000AFFF2000F044F8B82000F05BF8012000F068F8012000F075F8FC1D01F029F903002370104A104B1B78DBB201210B4322
:4036C000DBB21370FB1D1B78180001F01EF90B4A0A4B1B78DBB202218B43DBB21370074A064B1B78DBB204218B43DBB21370C046BD4603B090BDC04693000F4073000F40AC
:4037000080B500AF054A054B1B78DBB201210B43DBB21370C046BD4680BDC04673000F4080B582B000AF0200FB1D1A70FB1D1B78002B07D0054AFB1D1B781370044AFB1D0E
:403740001B781370C046BD4602B080BD43000F4003000F4080B582B000AF0200FB1D1A70034AFB1D1B781370C046BD4602B080BD13000F4080B582B000AF0200FB1D1A700E
:40378000034AFB1D1B781370C046BD4602B080BD23000F4080B582B000AF0200FB1D1A70034AFB1D1B781370C046BD4602B080BD33000F4080B582B000AF786000F050F84F
:4037C0007B68180000F00AF8032000F015F800F03BF8C046BD4602B080BDC04680B582B000AF7860034B7A681A66C046BD4602B080BDC0460000002090B585B000AF0200B4
:40380000FB1D1A700623FB600B23FC1801F079F8030023700B4B0B4A1268C0218A431100FA1D1078FA68904002000A431A600B23FB181B78180001F068F8C046BD4605B0AF
:4038400090BDC04608E400E080B500AF034B802252001A60C046BD4680BDC04600E100E080B500AF034B802252001A60C046BD4680BDC04680E100E080B500AF034B80227B
:4038800052001A60C046BD4680BDC04680E200E080B500AF00F036F8C046BD4680BDC04680B500AF064B064A1268802109060A431A6000F019F800F01DF8C046BD4680BD9E
:4038C0000000244080B500AF064B1B78002B04D1FFF7DEFF034B01221A70FFF7E1FFC046BD4680BDB811002080B500AFC046BD4680BDC04680B500AF00F066F8C046BD465E
:4039000080BDC04680B500AF1B4B1C4A1A601C4B00221A601B4B1C4A1A601C4B1C4A1A601C4B07221A601C4B00221A601B4B01221A601B4B164A1A601A4B00221A601A4BD4
:4039400004221A60194B00221A60194B00221A60184B00221A60184B00221A60174B00221A60174B00221A60154B1B689AB2154B1A80C046BD4680BD000024400B000002CD
:40398000400024404800244001000A000003244007000080040324401003244044002440000224400402244050002440880E2440C80E2440480F2440080F2440C80F24400B
:4039C000880F2440BA11002080B500AF074B074A126807490A40902109040A431A60054B054A12881A60C046BD4680BD00010240FFFF0FFF880F2440BA11002080B584B02A
:403A000000AF78600023FB6009E07A68FB68D3181B78180000F07CFFFB680133FB607A68FB68D3181B78002BEFD1C046BD4604B080BDC04680B582B000AF78607B681800C9
:403A400000F066FF0D2000F063FF0A2000F060FFC046BD4602B080BD90B585B000AF78600C23FC1800F04DFF030023707B68022B00D8AFE07B68302B00D9ABE05C4B1B7898
:403A8000DBB21A007B689A420AD35A4A0F23FB1812781A70584A0E23FB1812781A703FE0564B1B78DBB21A007B689A420AD3544A0F23FB1812781A70524A0E23FB181278D5
:403AC0001A702DE0504B1B78DBB21A007B689A420AD34E4A0F23FB1812781A704C4A0E23FB1812781A701BE04A4B1B78DBB21A007B689A420AD3484A0F23FB1812781A708E
:403B0000464A0E23FB1812781A7009E0444A0F23FB1812781A70434A0E23FB1812781A707B68DA1E0B23FB183F498A5C1A700B23FB181B782F2B0DD97B682A2B0AD93B4B1F
:403B400019221A60052000F0D3FE0D23FB1819221A7007E0354B1B68DAB20D23FB183F210A401A700B23FA180D23FB1812781B789A4208D22D4B7A68033A2B498A5C1A60F4
:403B8000052000F0B5FE2A4B7A6826498C4662441278D2B21A60274B0F22BA1812781A60254B0E22BA1812781A60052000F0C2F80B23FA180D23FB1812781B789A420CD958
:403BC0001A4B7A68033A18498A5C1A60052000F08FFE02E0002000F07BF80C23FB181B78180000F092FEC046BD4605B090BDC04640F3FF0F41F3FF0F42F3FF0F43F3FF0FF1
:403C000044F3FF0F45F3FF0F46F3FF0F47F3FF0F48F3FF0F49F3FF0F4AF3FF0F4BF3FF0F4CF3FF0F4DF3FF0FAC9101002CFF0B4028FF0B401CFF0B4020FF0B4080B584B046
:403C400000AF78600023FB60154B154A126801210A431A60134B144A1A60144B134A1268802109020A431A607B68002B12D01023FB600CE0012000F05DF800F019F8031E4C
:403C800002D00023FB6005E07B68013B7B607B68002BEFD1FB681800BD4604B080BDC04660F02E4078002E400220000010002E4080B582B000AF054B1B68012213407B6014
:403CC0007B681800BD4602B080BDC0460C002E4080B582B000AF0200FB1D1A7001BEC046BD4602B080BDC04680B582B000AF786009E00D4B1B68180000F0FAFD7B680B4AF7
:403D0000944663447B607A6880231B029A42F0D8074B1B687A685343180000F0E9FDC046BD4602B080BDC046680D00200080FFFF600D002080B582B000AF0200BB1D1A807E
:403D4000BB1D1B88044A12785343180000F0D0FDC046BD4602B080BD640D002080B500AF0F4B0F4A126801218A431A600C4B0C4A126802218A431A600A4B0A4A126830217D
:403D80008A4310210A431A60064B064A126807218A4301210A431A60C046BD4680BDC04600F02E4000FF2E4080B500AF0F4B0F4A126802218A431A600D4B0D4A1268072162
:403DC0008A4302210A431A60094B094A126830218A4320210A431A60044B044A126801210A431A60C046BD4680BDC04600F02E4000FF2E4080B500AFFFF7B0FF044B044A88
:403E00001268802109060A431A60C046BD4680BD00F02E4080B584B000AF78600C4B1B6801221340FB607B68002B02D0012B03D005E0FFF793FF06E0FFF7B6FF03E0002072
:403E4000FFF746FFC046FB681800BD4604B080BD00F02E4090B583B000AFFC1D00F051FD03002370074B074A1268C02109020A431A60FB1D1B78180000F047FDC046BD4650
:403E800003B090BD00010B4080B500AF054B1A68C0231B02134001D0012300E000231800BD4680BD00010B4090B583B000AFFC1D00F027FD030023700D4B0D4A12680D49A8
:403EC0000A408021C9010A431A60094B084A126808490A40802109020A431A60FB1D1B78180000F012FDC046BD4603B090BDC04600010B40FF3FFFFF80B582B000AF7860D1
:403F00007B68022B02D90020FFF7E2FE064B1A687B68DB000133DA401300012213401800BD4602B080BDC04610020B4080B584B000AF786039607B68022B02D90020FFF741
:403F4000C7FE7B681800FFF7D7FF031E16D10D4B1B687A68D200032191400A00D2431340FB603B6803221A407B68DB009A401300FA681343FB60034BFA681A60C046BD4649
:403F800004B080BD0C020B4080B584B000AF786039607B68002B02D07B68012B01D1012300E00023002B02D10020FFF791FE7B681800FFF7A1FF031E16D10D4B1B687A684D
:403FC000D2000232012191400A00D2431340FB607B68DB0002333A689A401300FA681343FB60034BFA681A60C046BD4604B080BD0C020B4080B582B000AF7860144B144A3E
:4040000011687A680A431A607B680122134005D0C0460020FFF770FF031EFAD07A6880235B00134005D0C0460120FFF765FF031EFAD07A6880235B02134005D0C046022014
:40404000FFF75AFF031EFAD0C046BD4602B080BD10020B4080B584B000AF786039607B68002B02D07B68012B01D1012300E00023002B02D10020FFF72BFE174B1B689B0F74
:404080009B0701D1C92300E05D231800FFF752FE124B1B68FB607B681B01114A9A401300DA43FB681340FB600C4B7A68120139689140FA680A431A60074B1B689B0F9B072A
:4040C00001D1432300E01F231800FFF733FEC046BD4604B080BDC0460C020B4008020B40FFFF000080B500AF034B1B68034A13401800BD4680BDC04610020B40040404005F
:4041000090B585B000AF78600B23FC1800F0F9FB03002370FFF7B8FE031E04D00123FB60FFF7C2FE01E00023FB607B680D4A13407B600D4B0C4A12680C4911407A680A4328
:404140001A60094B1B68FB68012B01D1FFF782FE0B23FB181B78180000F0D7FBC046BD4605B090BD0404040010020B40FBFBFBFF80B584B000AF0200FB1D1A700F4B1B686C
:40418000DAB20F23FB1808218A431A70FB1D1B78DB00DBB208221340D9B20F23FB180F22BA1812780A431A70044B0F22BA1812781A60C046BD4604B080BDC046000104404F
:4041C00080B584B000AF0200FB1D1A700F4B1B68DAB20F23FB1802218A431A70FB1D1B78DB18DBB202221340D9B20F23FB180F22BA1812780A431A70044B0F22BA18127829
:404200001A60C046BD4604B080BDC0460001044080B584B000AF0200FB1D1A700D4B1B68DAB20F23FB187F210A401A70FB1D1B78DB01D9B20F23FB180F22BA1812780A43B2
:404240001A70044B0F22BA1812781A60C046BD4604B080BD0001044080B584B000AF0200FB1D1A700F4B1B68DAB20F23FB1804218A431A70FB1D1B789B00DBB204221340ED
:40428000D9B20F23FB180F22BA1812780A431A70044B0F22BA1812781A60C046BD4604B080BDC0460001044080B500AF104B8022D2041A600E4B0E4A12681A60002000F049
:4042C00067F80B4B0A4A12681A600A4B0C221A60012000F0ABF8084B31221A60642000F067F8002000F074F8C046BD4680BDC046C0012040E4012040E801204090B583B02E
:4043000000AFFC1D00F0FDFA03002370094B094A126808210A431A60FB1D1B78180000F0F4FA1821082000F063F8C046BD4603B090BDC0460000204080B500AF064B1B78A3
:40434000002B04D1FFF7B0FF034B01221A70FFF7D5FFC046BD4680BDBC11002090B583B000AFFC1D00F0CDFA03002370074B074A126808218A431A60FB1D1B78180000F0D3
:40438000C4FAC046BD4603B090BDC0460000204080B582B000AF7860044B7A681204120C1A60C046BD4602B080BDC046C801204080B582B000AF7860044B7A681204120C89
:4043C0001A60C046BD4602B080BDC046D401204080B582B000AF7860044B7A681204120C1A60C046BD4602B080BDC046CC01204090B585B000AF786039600F23FC1800F048
:4044000080FA03002370084B79683A6891400A001A600F23FB181B78180000F076FAC046BD4605B090BDC0460800204080B582B000AF7860034B7A681A60C046BD4602B025
:4044400080BDC046F801204080B500AF104B8022D2041A600E4B0E4A12681A60002000F067F80B4B0A4A12681A600A4B0C221A60012000F0ABF8084B31221A60642000F078
:4044800067F8002000F074F8C046BD4680BDC04600012040240120402801204090B583B000AFFC1D00F02DFA03002370094B094A126801210A431A60FB1D1B78180000F0BC
:4044C00024FA1821012000F063F8C046BD4603B090BDC0460000204080B500AF064B1B78002B04D1FFF7B0FF034B01221A70FFF7D5FFC046BD4680BDBD11002090B583B0AC
:4045000000AFFC1D00F0FDF903002370074B074A126801218A431A60FB1D1B78180000F0F4F9C046BD4603B090BDC0460000204080B582B000AF7860044B7A681204120C4F
:404540001A60C046BD4602B080BDC0460801204080B582B000AF7860044B7A681204120C1A60C046BD4602B080BDC0461401204080B582B000AF7860044B7A681204120CC7
:404580001A60C046BD4602B080BDC0460C01204090B585B000AF786039600F23FC1800F0B0F903002370084B79683A6891400A001A600F23FB181B78180000F0A6F9C04657
:4045C000BD4605B090BDC0460800204080B582B000AF7860034B7A681A60C046BD4602B080BDC0463801204080B500AF064B1B78002B04D100F00AF8034B01221A7000F074
:4046000047F8C046BD4680BDBE11002090B583B000AF1D4B1B78DAB2FB1D3F218A431A70194AFB1D1B7809210B43DBB21370174A164B1B78DBB201210B43DBB21370C720AA
:4046400000F036F8C72000F053F8642000F060F8042000F06DF8BC1D00F053F9030023700A4A0A4B1B78DBB210210B43DBB21370BB1D1B78180000F048F900F029F8C046E7
:40468000BD4603B090BDC04671000F4091000F4080B500AF0549054B1B78DBB2802252421343DBB20B70C046BD4680BD71000F4080B582B000AF0200FB1D1A70034AFB1DF6
:4046C0001B781370C046BD4602B080BD01000F4080B500AF01E000F045F800F039F803001A0010231340F6D1C046BD4680BDC04680B582B000AF0200FB1D1A70034AFB1D74
:404700001B781370C046BD4602B080BD41000F4080B582B000AF0200FB1D1A70034AFB1D1B781370C046BD4602B080BD21000F4080B582B000AF0200FB1D1A70034AFB1D1F
:404740001B781370C046BD4602B080BD81000F4080B500AF024B1B78DBB21800BD4680BD61000F4080B500AF024B1B78DBB21800BD4680BD51000F4080B582B000AF7860CB
:4047800000F04EF87B68180000F00AF8032000F015F800F03BF8C046BD4602B080BDC04680B582B000AF7860034B7A685A64C046BD4602B080BDC0460000002090B585B021
:4047C00000AF0200FB1D1A700E23FB600B23FC1800F097F8030023700A4B0A4A12680A491140FA1D1078FA68904002000A431A600B23FB181B78180000F087F8C046BD46BE
:4048000005B090BD00E400E0FF3FFFFF80B500AF024B02221A60C046BD4680BD00E100E080B500AF024B02221A60C046BD4680BD80E100E080B582B000AF786000F04EF826
:404840007B68180000F00AF8032000F015F800F03BF8C046BD4602B080BDC04680B582B000AF7860034B7A689A64C046BD4602B080BDC0460000002090B585B000AF0200A5
:40488000FB1D1A701623FB600B23FC1800F039F8030023700A4B0A4A12680A491140FA1D1078FA68904002000A431A600B23FB181B78180000F029F8C046BD4605B090BD60
:4048C00000E400E0FFFF3FFF80B500AF024B04221A60C046BD4680BD00E100E080B500AF024B04221A60C046BD4680BD80E100E00230800803D00138FDD1C046C046C046E2
:404900007047EFF3108072B6704780F31088704780B582B000AF7860C046064B1B681F221340082BF9D0044B7A681A60C046BD4602B080BD080224404002244080B582B037
:4049400000AF78600A00BB1C1A80BB1C1A887B681A60C046BD4602B080BDC04680B582B000AF78600A00BB1C1A80BB1C1A887B681A60C046BD4602B080BDC04680B584B0BB
:4049800000AF494B1B78DBB21B02484A1278D2B21343FB60464B1B78DBB21B02454A1278D2B21343BB60BB68434A934207D1FB68072B04D1414BBB600423FB6009E0BA684F
:4049C000D4231B019A4204D1FB68042B01D13B4BBB603B4BBA681A603A4BFA681A603A4B1B78DBB21B02394A1278D2B21343FB60FA6880239B019A4202D0FB68002B01D1B8
:404A0000334BFB60334BFA681A60334B1B78DBB21B02324A1278D2B21343FB60FB68304A934206D0FB682F4A934202D0FB68052B01D12D4BFB602D4BFA681A602C4B1B68BC
:404A40001B097B602B4B1B68AA2B29D17B68012B26D9214B1B78DBB20E2B21D1264B1B78DBB29BB21B0299B2244B1B78DBB29AB2BB1C0A431A80224BBA1C12881A60214B08
:404A80001B78DBB29BB21B0299B21F4B1B78DBB29AB23B000A431A801C4B3A0012881A60C046BD4604B080BD59F1FF0F58F1FF0F5FF1FF0F5EF1FF0F580B0000580D000048
:404AC0006C002E4074002E405BF1FF0F5AF1FF0F0220000078002E405DF1FF0F5CF1FF0F0F0F000005050000050F000080002E40EC0F00F0E00F00F06DF2FF0F6CF2FF0FBB
:404B000084002E406FF2FF0F6EF2FF0F94002E4080B582B000AF0200BB1D1A80BB1D1B881800FFF707F9C046BD4602B080BDC04680B582B000AF78607B681800FFF7D4F8E8
:404B4000C046BD4602B080BD80B500AF00F0ECF8C046BD4680BDC04680B500AF00F0F0F8C046BD4680BDC04680B500AF00F0E8F8044B180000F0A2F8022000F0ADF8C046CF
:404B8000BD4680BD8D4D000080B500AF034B180000F080F8C046BD4680BDC0468D4D000080B500AF014B1800BD4680BD0202000080B582B000AF78602B231800BD4602B06E
:404BC00080BDC04680B582B000AF78602B231800BD4602B080BDC04680B582B000AF78602B231800BD4602B080BDC04680B582B000AF78602B231800BD4602B080BDC0468E
:404C000080B582B000AF78602B231800BD4602B080BDC04680B582B000AF78602B231800BD4602B080BDC04680B582B000AF78602B231800BD4602B080BDC04680B582B029
:404C400000AF78602B231800BD4602B080BDC04680B500AF2B231800BD4680BD80B582B000AF0200FB1D1A702B231800BD4602B080BDC04680B582B000AF786039602B23D8
:404C80001800BD4602B080BD80B500AFC046BD4680BDC04680B582B000AF786000F050F87B68180000F00AF8022000F015F800F03BF8C046BD4602B080BDC04680B582B000
:404CC00000AF7860034B7A681A67C046BD4602B080BDC0460000002090B585B000AF0200FB1D1A700623FB600B23FC18FFF709FE030023700B4B0B4A1268C0218A43110054
:404D0000FA1D1078FA68904002000A431A600B23FB181B781800FFF7F8FDC046BD4605B090BDC0460CE400E080B500AF034B802252011A60C046BD4680BDC04600E100E073
:404D400080B500AF034B802252011A60C046BD4680BDC04680E100E090B583B000AFFC1DFFF7CFFD03002370074B074A126804218A431A6030BFFB1D1B781800FFF7C5FD7A
:404D8000C046BD4603B090BD10ED00E080B500AF13F06AFEC046BD4680BDC046002243088B4274D303098B425FD3030A8B4244D3030B8B4228D3030C8B420DD3FF22090237
:404DC00012BA030C8B4202D31212090265D0030B8B4219D300E0090AC30B8B4201D3CB03C01A5241830B8B4201D38B03C01A5241430B8B4201D34B03C01A5241030B8B42BF
:404E000001D30B03C01A5241C30A8B4201D3CB02C01A5241830A8B4201D38B02C01A5241430A8B4201D34B02C01A5241030A8B4201D30B02C01A5241CDD2C3098B4201D377
:404E4000CB01C01A524183098B4201D38B01C01A524143098B4201D34B01C01A524103098B4201D30B01C01A5241C3088B4201D3CB00C01A524183088B4201D38B00C01AD2
:404E8000524143088B4201D34B00C01A5241411A00D20146524110467047FFE701B5002000F0F0F802BDC0460029F7D076E7704703460B437FD4002243088B4274D30309D3
:404EC0008B425FD3030A8B4244D3030B8B4228D3030C8B420DD3FF22090212BA030C8B4202D31212090265D0030B8B4219D300E0090AC30B8B4201D3CB03C01A5241830B31
:404F00008B4201D38B03C01A5241430B8B4201D34B03C01A5241030B8B4201D30B03C01A5241C30A8B4201D3CB02C01A5241830A8B4201D38B02C01A5241430A8B4201D343
:404F40004B02C01A5241030A8B4201D30B02C01A5241CDD2C3098B4201D3CB01C01A524183098B4201D38B01C01A524143098B4201D34B01C01A524103098B4201D30B0185
:404F8000C01A5241C3088B4201D3CB00C01A524183088B4201D38B00C01A524143088B4201D34B00C01A5241411A00D201465241104670475DE0CA0F00D04942031000D3AD
:404FC0004042534000229C4603098B422DD3030A8B4212D3FC22890112BA030A8B420CD3890192118B4208D3890192118B4204D389013AD0921100E08909C3098B4201D317
:40500000CB01C01A524183098B4201D38B01C01A524143098B4201D34B01C01A524103098B4201D30B01C01A5241C3088B4201D3CB00C01A524183088B4201D38B00C01A10
:405040005241D9D243088B4201D34B00C01A5241411A00D20146634652415B10104601D34042002B00D54942704763465B1000D3404201B5002000F005F802BD0029F8D069
:4050800016E770477047C046014B18687047C046401100200E4B70B500251E000D4CE41AA410A54204D0AB00F35898470135F8E714F094F8084B00251E00084CE41AA410E8
:4050C000A54204D0AB00F35898470135F8E770BDE8910100E8910100E8910100F091010030B50024A24208D0035D651C0C5DA34201D0181B02E02C00F4E7002030BD0023DD
:4051000010B59A4203D0CC5CC4540133F9E710BD03008218934202D019700133FAE77047134A1088810703D08107890F401A001D11791030484381B25088820703D0820715
:40514000920F801A001D800040180A494030098980B2CA0701D0503080B2890706D504495422091F09785143081880B270470000760D0020CC11002010B501F011FF10BD7D
:4051800010B501F013FF10BD10B500F05BFA10BD10B50749044609780220002907D1204601F054FF002802D120460CF003F910BD220F002070B504460120002C12D0236836
:4051C000002B0FD0616800290CD0074D06222889208118462968FFF792FF6968606809780170002070BD0000CC110020FFB585B0002768460E9D07734F481C460078002842
:4052000002D0082009B0F0BD10990F9801900095029105A807C800F007F90028F2D16946264603AB84460873002C19D0002115E08A00B75A082F09D990198078002805D023
:40524000083FB7521878401C187005E0002914D00027B75290198770491CC9B2A942E7D360460028CED10F98002809D0109901F047FA002804D00120C4E701208446EFE7AA
:4052800001F094FE2D480021416081600599016021888180022D07D3A1798171A17AC171A1890181218A418100211EE0481C19E082008B00A75AE65ABE46BE4211D26F46C9
:4052C0003E80B4461E190296B678BE7001967646E6521719029EBB78B3706646A652019EBE70401CA842E3D3491CA942DED3134822460C3000906846037B0799069800F0C3
:405300001BF90028B8D168460B4C007B60700B480C3001F07BFE0028AED1084907480C3108F090FF0028A7D108F0AAFF0028A3D10121217066E70000700D0020C0110020E9
:40534000F8B5054636480F460078002802D002242046F8BD002F60D000243249002D16D02A89D0070DD02868002808D003881B3BE12B04D24088FB2801D81B2801D20124E5
:4053800009E0900707D56868002804D1F7E70020088108604860002CDAD122482E8906811F481B21801D01804180042101711C490020891C0870F00705D019480622801D01
:4053C0002968FFF79CFE1749B00703D56A68144812788270124D0E46AD1D281F0D60486001F05AFE284601F049FE30890FF09CFF30890FF037F828880FF03AF8308910F057
:4054000013F903461033FFF78BFE1F21C018890140183880A91F88809AE7012498E70000700D0020CC110020FFB58446384F1C460020BB883F78054602460646002F11D1A3
:4054400000290ED0029999420BD36146002908D0002C06D00A99002906D02E4B0B99994202D2012004B0F0BD002144E0AB001F19BF78002F3BD0E35A002B38D07B435918FF
:4054800089B22B0000F04AF8050410161C253100A7782388BC46FF27233BEB37BB4222D26346032B1FD322E0A388002B1FD0302B19D31CE02389002B19D0282B13D316E00E
:4054C000A289002A13D01346134F233BBB420AD20DE0268A002A0AD033460F4F233BBB4201D2964203D901200EE0002001E000280AD16D1CEDB2099B9D42B7D31C246343FA
:405500005B1802998B42ACD89642AAD8AAE70000700D002079020000BAFF000030B47446641E2578641CAB4200D21D46635D5B00E31830BC18470000FFB583B000246946D6
:405540000C801F4606468C80002806D00598002803D004983043800701D0012466E0002FFBD03449049809888842F6D3FFF70CFBFFF7F2FA00F016FC002855D100F07EFDA9
:40558000002851D12C49084601F0EEF805042D0C4AD12A480499066081800021C18007810C98007AC00704D0684601F018FD040007D10C98007A800703D501A801F018FDD5
:4055C0000446BF1DFEB2002C20D13146059800F05DF804001AD110F035F8040016D16A461088928808368518144AF1B29088D288AEB29319984207D3401B801A80B201F0D0
:40560000A3FB050007D000E0FF25012400F062FA002D04D008E0F8B200F01CF9F6E700F085FA07490120087000F0CEFB204607B0F0BD0000740D002079570000D8110020B1
:405640007C0D002010B503480078012801D101F01DFA10BD7C0D002070B5084B0446DA889E8803205518B54206D8186880182060D8884018D880002070BD0000D8110020D3
:405680000148008970470000D8110020F0B587B007460D4600208900009006916846FFF7DBFF844600285DD1304800990160002117E02E4B88001A680629115406D22C4C7D
:4056C0000419667882185670628805E0C419203CA67A8218567022891B68C018491C4280C9B2A942E5D300242DE0601CC2B2059025E01E4FA30039689600581840887118B9
:40570000039604904E88B04217D938466F46FE80B6464F786E4677710297049F4F800168039F5E18767879184E700168764659184E800068029F18184770521CD2B2AA4279
:40574000D7D30598C4B2AC42CFD36046002809D168460699FFF780FF8446002802D1054900980860604607B0F0BD0000800D002010920100840D00207047000010B50028B0
:4057800009D005494A68002A05D0011F08788000105801F087FA10BD800D002010B50446FFF76EFFC0B2801DA0420CD307484068002808D0A100405801F0E6F9002801D062
:4057C0000470001D10BD002010BD0000800D0020F8B516460D460446FFF752FFC0B2801DA04203D20020C0430090F8BDB2B2E9B2684601F0EFF90099481C03D0024AA00054
:40580000526811500098F8BD800D0020F8B50746FFF736FF801DC6B20A49002005460C680DE06178002907D06188B94202D32078FFF7B4FF002804D1241D6D1CEDB2B542CA
:40584000EFD3F8BD800D002010B5002801D0FFF795FF10BD70B506460948002504680BE06178002905D062882078121D0023FFF7AFFF241D6D1CEDB2B542F1D370BD000011
:40588000800D0020FFB581B00A9F16000C4620D000F0F6F8054604281BD0002F0CD03846FFF7B4FF20492A0151184860002810D03A460499FFF723FC1B4928010E504618BB
:4058C000778101980570200406D47D20C000444304E0FF2005B0F0BD6404640C00F0BEF80746042807D000F053FAA0420BD800F04FFA201A03E0204600F0AEFA0020F060C7
:4059000035720020E6E700F043FA009000F0BAFA00980121001B009000F0F0F802493A0151180098C860E6E7E4110020F8B5042801D3FF20F8BD060116483418217A0429AA
:4059400003D0E068002802D017E00020F8BD00F01FFA054600F096FA00F0A0F804280CD001010C480F18F8680021451900F0C6F80020F860284600F06FFA6068054D002857
:4059800001D0FFF761FF042020720020A8516081E060DAE7E4110020FEB500266A46304601232549050169180D7A042D02D0C96800291BD000211154401CC0B20428F0D3D0
:4059C00000246846005D002830D01B48210108184189476805680291002101604160042241810272C160002E02D015E01354E3E700F054F804280ED001010F48081801901C
:405A0000C6680021304600F079F801980021C160304600F021FA0126002D07D038460299A847002F02D03846FFF70EFF641CE4B2042CC6D3FEBD0000E41100200EB500209D
:405A400005216A4600901181508103486946006810F08FFC0EBD0000880D0020074A0020010189180B7A042B02D0C968002903D0401CC0B20428F3D370470000E41100209D
:405A80000549002002015218127A042A03D0401CC0B20428F6D37047E411002030B50A4B04200A4C00210A011219157A042D06D0D268002A03D09A4201D808461346491C56
:405AC000C9B20429EFD330BDFFFF0000E41100207047000030B50020074C05460423020111190B72A5504D60401C4D81C0B2CD600428F4D330BD0000E411002030B5094C77
:405B000000231A011219157A042D04D0D568002906D02D18D5605B1CDBB2042BF1D330BD2D1AF7E7E4110020002070471CB5002469460C70142001902346054A054810F0D3
:405B40001DFC04480068401C00D1FF2420461CBDA95B0000880D00203EB5124A0146FF2000230124126800290DD0012914D0042908D104206946009308814B81104610F06E
:405B8000F8FB80B23EBD68460093048143816946104610F0E9FBF4E768460093048143816946EBE7880D002070B545890468416800890300FFF7B2FC08280509091E2228D0
:405BC0002628002007F04EF81EE0022908D0C8B22A4621460EF09AFB2046FFF735FE13E002202A4621460EF091FB2946204600F00DF809E0002010F0BBF805E02046FFF749
:405C0000CBFE01E0FFF740F8002070BD014B0022DB6818478C0D002070B5448905680089022803D0032809D0FF2070BD2246094C0023A46829460120A04708E0FFF7A0FA66
:405C4000241DA2B200232946022008F0AEF9002070BD00008C0D0020704700000248002141600180418070478C0D002070B50C46002186B016460391012802D0022859D1B4
:405C800016E003A9012008F0E5F901281BD1039D324621462846FFF732FA0095287801900220694608814E816846FFF7B5FF41E0214D002B686809D0049004A9022008F022
:405CC000C9F901281DD0022006B070BD002812D0298840182146FFF712FA28880024801980B228806988091D884206D12C801348FFF792FF03E00320E6E788421AD96C6062
:405D000018E004986860E278A378110219430B4A698000231060E3565360032313815181A1788170E178C1706178417021780170042028800020C7E78C0D00202412002009
:405D40003EB515460C46022803D004280CD000203EBD0091019002206946088107484A81006810F006FB07E00EF0D0FA044B0022DB6829462046984701203EBD880D00207C
:405D80008C0D0020014AD160906070478C0D0020034801688068081A0A214843000970473012002010B5FEF7DFFE4C2204490548FFF7A5F903490120C870002010BD0000F3
:405DC0002C9201003416002010B5FEF7BDFE10BD70B5134C2368002B08D0207B1149C20705D04008400020738868A08070BD88680B4AA18880B29268814203D90A4D691A28
:405E0000091802E0814202D2411A5118A160A080A0689842EAD310F0C9FA00F013F870BD30120020C0102E40FFFF000010B508461946FFF7A7FF10BD704710B5FFF780FFEF
:405E400010BD000003480021016041608160C1607047000030120020024610B5FF20002A0CD0FFF7EFFF064C0321207B0843207310010A21FFF718F82060002010BD000018
:405E80003012002000B504480A21806848430209FFF7D8FF104600BD301200200248007B8007C00F704700003012002010B54B490868002802DA4A4B01221A70022290435A
:405EC0000860484800694549C00B4031096A0246C907C90F0A4259D0012000F097FA3F480E216C30FEF73AFD3E4820218430FEF735FD3C4814219C30FEF730FD3948FF2195
:405F0000C131A430FEF72AFD3648FF212F31B030FEF724FD33483449BC30FEF71FFD31483249AC30FEF71AFD30492E48491CB430FEF714FD2B482E49B830FEF70FFD294838
:405F40002C49CC30FEF70AFD26482B490830FEF705FD24482949A830FEF700FD214828498830FEF7FBFC1F4826498C30FEF7F6FC1C481921C9029030FEF7F0FCFEF7FEFC0B
:405F8000FEF70EFEC0B2022812D01FE000290BD0002101420AD0114801216030FEF7DEFC0120FEF7C5FD97E70121F2E7FF2010BD15491648FEF7D2FC14481549001DFEF7BF
:405FC000CDFC124800210830FEF7C8FC54200449C043891C0870002010BD000000F02E409C0D002000002E40320300002F3F00003102000010520000EC160000FA120000C3
:4060000031D000003AE300009956000080012E40F80F000070B50646581C80B245086D00002408E0304600F0C1F81055000A1119A41C4870A4B2AC42F4D3D80705D0D018A9
:406040002038D15CC47FD454C17770BD30B50A4C002100195B1E07E0541864782502545C2C430480891C89B29942F5DB994201D1515C018030BD000000102E4010B5FF202F
:4060800000F0C4F90F49FF2048700E481021801D41800121417001700A490020C91C4870FFF704FF04000AD100F010F907210648FEF744FC044807211830FEF73FFC2046FD
:4060C00010BD00009C0D0020CC112E4070B5002405465B1E0AE0284600F068F8010A161971702D1D1055A41CADB2A4B29C42F2DB9C4203D1284600F059F8105570BD00002D
:4061000070B500210A4D5B1E0AE0541864782602545C344346193480001D891C80B289B29942F2DB994202D1515C4019018070BD00102E40F0B50599091FCFB200217E1E55
:406140000BE0541864782502545C2C43164D45192C80001D891C80B289B2B142F1DBFC0712D01C78515C24020F4A0C4381180C809C785D78001D210280B22943841821802E
:40618000001D80B2D9780CE059781A7809021143054A84182180001DD9789B78090280B2194380180180F0BD00102E40014940180088704700102E4010B50B490020487057
:4061C00000F084F8002000F047F9002000F034F907210648FEF7B2FB044807211830FEF7ADFB002010BD00009F0D0020CC112E4010B50B46062812D006DC01280CD00328F9
:4062000001D1FFF7D9FF10BD0A28FCD00B28FAD105480078107010BDFFF730FF10BD1146184600F035F910BDA20D0020F8B5244DAC6A0127A007234E002816DA3078062820
:406240000ED1286A384328621F480069F903084381B21D481030FEF781FB042000F0D6F8174802212830FEF769FBE00718D000F01FFF01280FD1002000F06CFF062000F0BC
:40628000C5F81049FF20C91E48707078002802D1686B384368630A4801212830FEF74EFBE0050BD53078042802D1052000F0AEF80348FF2101312830FEF740FBF8BD000003
:4062C00040F02E409F0D002000002E4010B503212348FEF743FB0120FEF71AFC20483038406A204C80076178800F890001431C480C38FEF733FB6078002808D0401E02214D
:4063000081401820FEF7BAFEC000083800E0B82081B21548FEF722FB1348032109021438FEF71CFB10481149B830FEF717FB612189010F48FEF712FB0D480321001FFEF7E8
:406340000DFB0C490C48FEF709FB0B480B496038FEF704FB084801218838FEF7FFFA10BD70F02E40A20D0020D8102E4090890000041E2E40FF0F000058122E402090000021
:406380000848017806290BD140780749002803D1486B400840004863C86A01221043C862704700009F0D002040F02E4001480078704700009F0D002000B50300FFF7AEF894
:4063C000080D050D0B070507090D012000BD032000BD042000BD022000BDFF2000BD0000074A9168D26889B2064B92B2994204D105498A4201D1012100E0002101707047AD
:4064000080002E4033D000003FE3000010B50446FEF7A2FB072C01D9FF2C01D102480470FEF792FB10BD00009F0D002001494870704700009C0D002010B5064A012805D030
:406440001921C9021046FEF789FA10BD1D21C902F8E7000090002E4010B50A4A141D012808D009491046FEF779FA08492046FEF775FA10BD04491046891CFEF76FFA034961
:40648000491DF3E788002E4031D000003AE3000070B50C460546FEF783FBC0B202280E49287804D0FF2810D04C280CD810E0FF2809D10A4AD0680004800F032801D0087801
:4064C00007E09069000A553803E00878207070BD4F382070087070BD9E0D002000002E40F0B50122002834D0002932D00424420600D00524792342065B06D21800D0641C09
:40650000034600221EE00C2516466E43124D00277519AF72104F002ABB51696007D0661EB24209D10D4E86197606760E05E05E06760E8027BE1B00E080269B198919521C67
:406540002E81D2B2A242DED303480549006B002288611046F0BD0000BC14002079020000A80D002018B50020694608700A48006900280ED0132149014018047E68460470B2
:406580004F21C900054800F05BF8A04201D0012018BD002018BD0000A80D002040120020074900200C2242435218927A012A05D0401CC0B20628F5D3002070470120704721
:4065C000BC140020F8B50F000446164609D01A4D1A496868A04202D94018A04201D38E4201D90120F8BD39462046FEF779FD002820D0324639462046FEF781FD0E49F0B25A
:40660000012620318E7600210C220B4653430A4A9A1813895568EF18A74207D9641B1B1B9672834206DAC01A1469C0B2491CC9B20629E9D30020F8BDBC1400207902000043
:40664000034610B50020024604E09C5C2018521CC0B292B28A42F8D310BD000070B500F05FF8084C064A216907480D46FEF747FD05492846FFF734FFFFF774FF207070BD88
:4066800079020000A80D002040120020002070470020054A002902D0012902D002E0906000E0D06000207047A80D002070B5084C154608460549E26889182A46FEF71FFD71
:4066C000E0684019E06028B270BD000040120020A80D00203EB50A226946FFF7E7FF044606480A2200686946FEF7FAFC002802D00020C0433EBD20463EBD0000AC0D0020A9
:40670000002802D0044A914201D2FF20704703494A6108610020704779020000A80D0020024800218160C16070470000A80D002070B5074C15460548A26880182A46FFF7ED
:4067400041FFA0684019A06028B270BD40120020A80D002010B503490A220968FFF7E8FF10BD0000AC0D002010B50F4A002313600E4A13600E4B18600E4801600E4901207A
:4067800008600E490860000290600E490C4808600D4914300860FF381538506000F0BCF800F0CAF9002010BDDC0D0020C40D0020F00D0020F40D0020E00D0020D00D0020F1
:4067C00004160020D40D0020E80D0020014610B50020002910D0094B1A689C685118A14209D25868196080188A0704D08A07920F891A091D196010BD002010BDC40D0020BE
:40680000F8B50024164E671E321F3D463168136806E01422624310328A58521C1BD0641C9C42F6D36A1C14D02C461422544322460C3288500C214843FFF7C8FF31680028F4
:4068400008510AD031680020103408517068401C70602846F8BD2546E4E73846F8BD0000D40D0020F3B50026F64381B000281BDB1E490968884217D80299002914D01B4F05
:40688000142204463F1D54432546396810354859401C09D0FEF760F938682F1F4159C359994203DBFEF750F93046FEBD214608310091465801590C20704308180C22029933
:4068C000FEF71DFC0948761C001D0068C159B14200D100260549009A091D865008684159491C4151FEF730F90020FEBDD00D0020002803DB07490968884202D90020C043B4
:40690000704704491422091D096850431030085870470000D00D0020F0B500200D4A451E0346171F50600FE014260146714314680E1DA3510C4616680834335116680834E8
:4069400035511468401C635039688842ECD30020F0BD0000D40D0020F3B50026F64381B0002841DB2349096888423DD8029900293AD0204F142204463F1D5443254639681A
:4069800010354859401C2FD0FEF7E6F83868415900292BD0211D009146580C21005971430F46C1190C220298FEF7A9FB11480021001D0068761C00590C34C0190160416029
:4069C00081600C48001D00680159B14200D100260849009A091D865008684159491E4151FEF7B2F80020FEBD3046FEBDFEF7ACF8FAE70000D00D0020FEB504460D4600201D
:406A00001E49089E0860471E009001900290002C11D0486885420ED2002A0CD0002E0AD0642E08D808460C3001681C2068430C18207A002801D03846FEBD012022602072E6
:406A40001846FFF7DDFE6060401C13D06681A6810A4827610C3067610179A94200D205710021684601810A462846029B00F040F82846FEBD00202072DDE70000DC0D0020D3
:406A800038B50124009400F039F838BDFEB50027164EFF433D4600240EE01C20316860430818017A002906D04068FFF721FF002801D0254603E0641C3079A042EDDA681C98
:406AC00012D01C2130684D434419FEF745F869466068FFF741FF0546FEF736F8002DD9D1216868468847D5E7FEBD0000E80D002038B50024009400F001F838BD1FB50022C3
:406B00000C49541E0A60002811DB496888420ED808491C220C31096850430818406801A9FFF7A0FE401C02D0002004B010BD2046FBE70000DC0D0020F0B50021114A4D1E2D
:406B4000174611710C3F0B46BD6016E008461C2460431668041D355114680646235014680836A3551468361DA353044616680A34335318301468491C255078688142E5D3FA
:406B80000020F0BDE80D002038B500210091002811DB0F49097888420DDA0D4D04010C3529680859002807D0201D0818694600F06FF9002801D0002038BDFDF7CDFF286863
:406BC0000F34015D491E0155FDF7BEFF009838BDF80D0020F7B582B0002502986E1E06602E48D21C024017462D4A2C4610460C380178106805E02301C358002B0FD0641C20
:406C0000E4B28C42F7D3711C28D03401211D40180191039900F02AF900281FD101E02646F1E71F48016820460C300F521C480399026820460E301154194803990268204645
:406C40000F3011540398784300F0A0F8144900280968085102D00024009011E001251AE00F48016801980818009900F02CF9002801D0012502E00098C0190090641CE4B26D
:406C800003988442ECD3002D05D10298066004480179491C0171284605B0F0BDFCFF0000040E0020F8B50D4600216A468C461180002839DB23490978884235DA214B040170
:406CC0000C3319680A59002A2ED020460C300B5A801C0E5C184670438018954224D3854222D2002006E007465F43BF18AF4206D0401CC0B2B042F6D36046002814D0114EDD
:406D0000271DC8190C366A46294600F006F900280AD168460088012808D030682946C01900F0D1F8002803D00120F8BD0020F8BDFDF712FF30680F34015D491C0155FDF778
:406D400003FFF3E7F80D0020F8B50F46002400F031F8002817D10C4900220B460C334A600EE021011D680E466A501D680C36AA53B61C1D680F31AA551D68641C6A54E4B2BC
:406D8000BC42EED31A71F8BDF80D002000280BD0C01C074A81085068890053884118994203D89368516018187047002070470000F80D0020F8B5064600200F4D009029709E
:406DC0000C0121466846FEF747FC00280CD129460C3100980860301B001F84B221466846FEF73AFC002801D0FF20F8BD6C800098A8600020F8BD0000F80D0020F8B5002880
:406E000027DB19490978884223DA174C05010C342168485900281CD028460C30085A009028460E300E5C401C0E5420682F1DC01900F064F800280CD12068002445590EE019
:406E4000094829460C300068C01900F03CF8002801D00120F8BD00982D18641CE4B2B442EED30020F8BD0000F80D002030B50D4604000BD0A800FFF789FF6060002805D044
:406E800000202570C0436080002030BD012030BD70B50D46040005D0002D03D00220205E002801DA012070BDFDF756FE0221615E60688900405828606088401E6080FDF728
:406EC00043FE002070BD70B50D46040007D0002D05D002212078615E401E814201DB012070BDFDF739FE6088401C00B26080616880000D50FDF728FE002070BD10B5040013
:406F000009D0227800216068FEF702F90020C0436080002010BD012010BDF0B500231D46002802D00224045F0AE00120F0BD46689F00F6598E4201D1012503E05B1CDBB276
:406F40009C42F4DA15700020F0BD000001480078704700000C0E00207CB505460024FEF70FF9A8796946087000A8062229460130FEF7C5F80021684606F04CF90C2806D046
:406F8000072806D01F2806D0122806D006E0022404E0042402E0272400E0012420467CBD01480121417270474017002010B500F075F9FFF7FBF9FFF7FFF910BD70B5044633
:406FC0000025FEF7DDF8002C06D0A079012803D8214603F005FB00E00125284670BD01460120002902D05020088000207047000001460120002905D0034854220078504324
:4070000008800020704700000E0E002010B502460D49FE204870032410460FF0CDFC002810D10FF071FC00280CD107F06FF8002808D100F035FB002804D106F0EBFB00283D
:4070400000D10024204610BD0C0E002070B50025044600280ED0A07901280BD8FEF790F8A0790028204602D003F0A4FE03E003F079FE00E00125284670BD0000014610B56A
:407080000120002904D006220248FEF738F8002010BD0000180E002001460120002903D00878024908700020704700000E0E00200148007A704700004017002038B5044606
:4070C0000120002C20D0617801291DD800290BD0FF25E535FEF754F80C4828180088C0B22070072803D00EE0FF25CD35F2E70020694608706846FFF773F96946087801281C
:4071000001D108202070002038BD000000102E40014A0021926810470C0E002008B500226B461A7026280CD0094A342852680BD0352805D1900703D50021352007F0C2F8EA
:4071400008BD19462620F9E7D007F9D03420F5E70C0E0020014908727047000040170020F8B504460120002C26D06178012902D92278092A20D8002905D0FF25E535207818
:40718000092803D004E0FF25CD35F8E708202070FDF7F6FF2078114F114E08280DD00020FFF75AF970780128207810D00D4969180880FE2070700020F8BD0120FFF74CF95D
:4071C0000720B8810549203188800120F2E7B8810248217820308180EBE70000C0112E400C0E002000102E4070B50E46050001D0002400E00C4C002C11D0E28A500609D500
:40720000D107C90F022003F0C7FEE08A40218843E08204E0D107C90F012003F0BDFE3146284603F009FB70BDA0160020F8B50546002004460D4E009013E0224669462846C5
