:400000000080002011000000951000009510000080B500AF01F048F880B500AF374B12221A6003F095FE364B180004F0BDFD012003F09EFE182003F0BDFC324B324A1A60C8
:40004000324B8022D2051A60314B314A126802210A431A602F4B304A1A60304B00221A602F4B2F4A126808218A431A60FA23DB00180003F091FD2B4B180003F009FE2A4BC5
:400080002A4A1A602A4B2B4A1A602B4B2B4A1A60274B2B4A1A602B4B2B4A1A60244B2B4A1A602B4B882292011A60214B294A1A60294B802212061A60284B00221A60284BB5
:4000C00043221A60274B41221A60274B41221A60264B42221A60264B41221A60254B42221A60254B40221A60084B8022D2051A60024B11221A60C046BD4680BD3000104046
:40010000001BB70004010B40060000800C020B4078002E407C002E402D3E000064F02E406CF02E40DC0500000C03014000BF5D000000014043FF00800403014000AF0400AC
:4001400041FF0080080301400083050042FF00800003014040FF008008010B4000010B4038010140300101402801014024010140200101401C0101400401014080B582B05E
:4001800000AF72B6524B00221A60524B01221A70FB1D00221A7022E0FB1D1A7813005B009B185B004C4A9B183B603B681A78597809020A43997809040A43DB781B06134382
:4001C00018003B681A795B791B0213439BB2190000F0FAFEFB1D1A78FB1D01321A70FB1D1B78012BD8D93D4A3D4B1100180000F0FBFE3C4BEE2212061A603B4B3B4A1A6046
:400200003B4BC02292041A603A4BCC2292051A60394B992212041A60384B992212041A60374BC02292021A60364B992212041A60354B802252051A60344B992212041A602A
:40024000334BE022D2051A60324B334A1A60334B334A1A60334B02221A60334B02221A60324A324B1B78DBB23C218B43DBB214210B43DBB213702E4A2D4B1B78DBB21621E1
:400280000B43DBB213702B4B2B4A1A602B4B6B221A602B4B2B4A1A602B4B20221A602B4BC0221A602A4B8822D2031A60294B802212021A60284BC0221A60284B284A1A6055
:4002C000FFF7AAFE00F0D2FEC046BD4602B080BD6CF02E401C700F408C900100C090010098900100000002400001024003009908000202400003024000500F4010500F406C
:4003000018500F4020500F4028500F4030500F4038500F402001204018880800A0012040155505002000104000800F4001700F4000700F40080004404660D8000001044074
:4003400008010440B61DDB001801044000020440080204400C02044000030440080304408603240010B5064C2378002B07D1054B002B02D0044800E000BF0123237010BD8B
:40038000481100200000000088900100084B10B5002B03D00749084800E000BF07480368002B00D110BD064B002BFBD09847F9E7000000004C11002088900100A80B002064
:4003C0000000000080B584B000AF134B1B78022B1ED13B1D14221A813B1D104A1A603B1D01229A800E4A381D0023002114F020F83B1D17221A813B1D0A4A1A603B1D012214
:400400009A80074A381D0023002114F011F800E0C046BD4604B080BD16240020A0230020282400209423002080B584B000AF02003960FB1D1A703B68DA179B185340FB60C7
:40044000FB68642B19DCFB1D1B78002B02D0012B08D00FE0FB68180003F0CCFE094B3A681A6007E0FB68180003F094FF064B3A681A60C046FFF7A6FF00E0C046BD4604B0BF
:4004800080BDC046A02300209423002080B584B000AF0E4B1B78022B13D10D4B1B68002B10D0391D0B4B1A785B781B021A4300231204120C1B0C1B041343180012F064FD4B
:4004C00000E0C046BD4604B080BDC04616240020701100202824002080B500AF034B01221A6004F0B9F8C046BD4680BD7C11002080B500AF04F0CEFA03009AB2054B1A8075
:40050000054B01221A70022004F0DEFAC046BD4680BDC0469C2300206411002080B500AF04F078F903009AB2054B1A80054B01221A70022004F088F9C046BD4680BDC046AE
:400540009A2300206411002080B500AF012004F0EBF90A2003F076FB002004F0E5F91E2003F070FB012004F005FA0A2003F06AFB002004F0FFF91E2003F064FBC046BD46D5
:4005800080BDC04680B500AF234B1B88180005F00DF800228023DB0504F0F0FE031E0AD01D4B1B88180005F001F800221B4B04F0C7FE031E16D11A4B1B88180004F0F6FF0C
:4005C00000228023DB0504F0D9FE031E13D0144B1B88180004F0EAFF0022104B04F0B0FE031E08D000210020FFF71EFF00210120FFF71AFF0BE00B4B1B7819000020FFF7D0
:4006000013FF094B1B7819000120FFF70DFF00231800BD4680BDC0469C230020000034409A230020B8230020B923002080B500AF72B6FFF789FFFFF7A5FF034B00221A70BF
:4006400062B6C046BD4680BD6411002080B500AF044B01221A60FFF7E9FF03F08BFFC046BD4680BD6811002080B500AF0F4B1B68002B17D00E4B1B68002B04D003F080FD5F
:4006800003F04EFE03E003F069FD03F037FE084B1B685A425341DBB21A00054B1A60034B00221A60C046BD4680BDC0467C110020AC0B002080B500AF00F00CF8FFF744FF55
:4006C00005F054F800F060FB00F0EAFB00F00CFCF6E7C04680B500AF62B63A4B180000F0D1FD394B180003F0CFFF02F061FF03F04DF803F033FD03F001FE00210020FFF734
:4007000093FE00210120FFF78FFE04F091F904F04FF82E4B180004F0E5F92D4B180004F0A1F8FF2002F0CAFFFF2002F0D7FF002003F0B2F803F06AFE264B180003F02EFFA8
:40074000062002F0DBFF062002F0F0FF062003F005F8214B180000F07DF8204B9B68204A1000190020231A0004F0BBFF1B4B9B68DB7F1C2B15D8194B9B68DB7F1A00184B40
:4007800001219954154B9B68DB7F0133154A1178134AD154114B9B68DB7F0233DAB2104BDA770E4B0E4A9A60802002F097FF142003F048FAFF2002F091FFFFF755FFC0467C
:4007C000BD4680BDD5080000D9040000F10400001D0500004D060000CC0C00001C0C0020C0230020B00B002080B582B000AF78600A00FB1C1A70FB1C1B78022B22D17B6851
:400800001A78124B1A707B6801331A78104B1A700E4B1B7819000020FFF706FE0C4B1B7819000120FFF700FE084B1B78DB43DBB2180002F043FF064B1B78DB43DBB21800F6
:4008400002F04CFFC046BD4602B080BDB8230020B923002080B582B000AF786003F0D2FA0121002003F010FB0121002003F03AFB7B681900002003F09BFB5A2003F008FAE1
:40088000012003F065FB03F093FA044B180003F023F8C046BD4602B080BDC046A108000080B500AF03F07AF803F0CAFB02000423134009D0042003F0D1FB054B1B889BB2AF
:4008C00001339AB2024B1A80C046BD4680BDC046BA23002090B593B000AF786039607B682B2B00D138E20FD8262B23D005D8012B1CD0202B00D1C8E03BE2272B00D192E1E5
:40090000282B00D104E234E24C2B24D005D8412B1ED0422B00D121E22BE24D2B00D1C7E189225200934200D1BEE122E2002000F041FD1EE2E54B1B78062B00D010E2E44B3D
:400940001B78002B00D00BE2002000F033FD07E2FFF79CFD0DE23823FB183A6813CA13C312681A603823FB189B89142B21D13823FB185B681B781A00D64B1A60D54B1B68BF
:40098000DAB2D54B1A70D44B02211800FFF72CFFD24A3823FB18181D0023002113F048FDCF4B1B780133DAB2CD4B1A70C84B01221A703823FB189B89172B21D13823FB1838
:4009C0005B681B781A00C74B1A60C64B1B68DAB2C14B5A70C04B02211800FFF705FFBF4A3823FB18181D0023002113F021FDBC4B1B780133DAB2BA4B1A70B54B01221A701E
:400A00003823FB189B890E2B30D13823FB181B89022B22D13823FB185B681A78AE4B1A703823FB185B685A78AB4B5A70AA4B02211800FFF7D9FEA94A3823FB18181D0023F9
:400A4000002113F0F5FCA64B1B780133DAB2A44B1A709F4B01221A7008E03823FB189B890D221900122000F07BFA82E19B4B1A785B781B021A4300231204120C1B0C1B04EF
:400A80001343180012F0CCFA73E1904B1B78022B00D167E11823FB183A6813CA13C303CA03C31823FB181B78002B58D11823FB181A7A8D4BDB7F9A4251D11823FB18DA68EB
:400AC0001823FB181B7A023BD3181B78012B46D11823FB18DA681823FB181B7A013BD3181A787F4B1B789A420ED31823FB18DA681823FB181B7A013BD3181B78642B16D12C
:400B0000774B1B78002B12D1784B01221A701823FB185B68764A1000190006231A0004F0E0FD1823FB185A78724B1A7017E06F4B00221A706F4B00221A706D4B00221A7046
:400B40006B4B00225A706A4B00229A70684B0022DA70674B00221A71654B00225A711823FB181B78042B00D0FCE01823FB181B7A142B00D0F6E05D4B1B78002B00D1F1E04B
:400B80001823FB185B685A490622180004F09AFD031E00D0E6E01823FB185A78554B1B789A4200D0DEE01823FB18D8681823FB181B7A1A00504B190004F084FD031E00D09D
:400BC000D0E000F0F7FC1823FB185A784B4B9A711823FB185B681A78484B1A701823FB185B685A78454B5A701823FB185B689A78424B9A701823FB185B68DA783F4BDA70B3
:400C00001823FB185B681A793C4B1A711823FB185B685A79394B5A71394B01221A70334B00221A709EE0374B1B78022B00D09BE0354B01221A702C23FB1811221A812C23B9
:400C4000FB18274A1A602C23FB1801229A802C23F918224B1A785B781B021A4300231204120C1B0C1B041343180011F08DFE0C23FB180E221A810C23FB18174A1A600C233B
:400C8000FB1802229A800C23F918144B1A785B781B021A4300231204120C1B0C1B041343180011F067FE5FE0002000F083FB60E00A4B1B78002B59D0084B1B78180010F0AD
:400CC000BDFB124B01221A7050E0C0461624002084110020A0230020F023002028240020B00B002094230020C023002085110020E823002086110020B40B0020E02300201C
:400D000087110020C80B00208811002089110020194B00221A70194B1B78012B0BD1184B1B78012B07D0174B1B78062B13D1002000F040FB0FE0114B1B78022B18D1104BE9
:400D40001B78012B14D00F4B1B78062B10D1002000F0DEFB0CE00BE0C0460AE0C04608E0C04606E0C04604E0C04602E0C04600E0C046BD4613B090BD88110020C80B0020CA
:400D8000841100201624002090B583B000AF3A4B1B78012B00D06BE004F0E8FC374B1B78002B06D0354B1B78180010F047FB04F0DDFC334B1B78012B02D0022B28D057E00B
:400DC000304B1B78032B03D100F05EFB04F0CEFC2C4B1B78062B18D1BC1D002000F098FB03002380BB1D1B88002B0BD1264B1B889AB2264B1A80224B02221A701E4B002203
:400E00001A7002E01E4B01221A7004F0AFFC2FE01C4B1B78042B03D100F0CCFB04F0A6FC184B1B78062B20D1194BDB7F013B194A1178174AD154184B154A9A60BC1D0020FF
:400E400000F0B8FA03002380BB1D1B88002B09D10B4B01221A70114B00221A70064B00221A7002E0064B02221A7004F07FFCC046C046BD4603B090BD841100202824002022
:400E8000C80B002016240020BA2300208A110020C0230020B00B00201C0C00208711002090B583B000AF0D4B1B78002B11D004F05DFC0B4B1B78062B0BD1084B00221A70EF
:400EC000BC1D084B180000F087FB0300238004F04DFCC046BD4603B090BDC0468711002016240020E023002080B500AF164B1B78022B15D1154B1B889BB21A00144B1B88BE
:400F00009BB2D31A2D2B0BDD124B1B78062B03D0104B1B78042B03D10F4B01221A7011E00E4B1B78002B0DD004F020FC094B1B78062B07D1094B00221A70002000F0E8FA74
:400F400004F014FCBD4680BDC80B0020BA2300208A11002016240020841100208911002090B585B000AF040008001100FB1D221C1A703B1D021C1A80BB1D0A1C1A700C23CC
:400F8000FB18FA1D12789A700C23FB183A1D12881A800C23FB18BA1D1278DA700C23F918084B1A785B781B021A4300231204120C1B0C1B041343180011F0A8FFC046BD468B
:400FC00005B090BD2824002080B582B000AF786039603A687B680021180004F08BFBC046BD4602B080BDC04680B586B000AF7860396000233B6100237B612FE07B699B00EF
:401000007A68D3181B68BB600F23FB18BA681A70BB68FF229343BB6018E03B695B003A68D3181B781A00BB68D31819003B695B003A68D3185B780B703B6901333B610F2347
:40104000FB181A780F23FB18013A1A700F23FB181B78002BE1D17B6901337B617B69092BCCD9C046BD4606B080BDC04680B500AF054B03221A60054B03221A60044B002226
:401080001A60C046BD4680BD3000304030003140000E3F4080B500AF04F0E8FA03001B680C2B00D1FEE7FEE780B586B000AF224B7B61224B3B61204B7B6135E03B691B68A1
:4010C000FB603B695B68BB603B699B683B6000237B600CE0FB681A68BB681A60BB680433BB60FB680433FB607B6804337B607A683B689A42EED13B69DB683B6000237B6066
:4011000008E0BB6800221A60BB680433BB607B6804337B607A683B689A42F2D13B6910333B617B69013B7B617B69002BC6D104F0A3FAFFF7BFFAFEE7010000002097010077
:4011400080B582B000AF154B144A126801218A431A6000237B600FE07B68032B04D8104B7A689200D35800E00E4B0F4A796889008B507B6801337B607B682F2BECD9FEF724
:40118000FDFF0A4B00221A60044B044A126801210A431A60C046BD4602B080BD00001040000000009510000000000020C000002080B500AF1B4B00221A701B4B00221A704D
:4011C0001A4B00221A701A4B00221A70194B5A88194B1A80174B9A88174B5A80154B9A79154B1A73134BDA79134B1A71124B0822DA81114B0A221A820F4B00225A820E4B18
:4012000064229A820C4B0022DA820B4B012252421A830A4B1E221A8000F012F8C046BD4680BDC0463D240020242400203B2400203A240020300C0020F82300201224002045
:4012400080B500AF0C4B1B88002B05D10B4B0E220021180004F04EFA074BDB88002B05D1074B06220021180004F044FA01F016FEC046BD4680BDC046140D00202C240020F7
:401280001C240020B0B594B004AF78603E23FB1800221A802823FA183E4B1000190014231A0004F01EFA3C4B1B78002B04D1FFF77FFF394B01221A707B68002B5FD0374B80
:4012C0007A681A603E23FB181B88002B29D11023FB181C22BA185A601023FB182022BA181A601023FB1800221A812023FB181B221A802023FB181B225A802023FB18042259
:401300001A711C23FB1808221A703E23FC180E23FA181023FB181100180004F003FB030023803E23FB181B88002B2CD13E23FC182823FD18AE231A0119491A4800230293E1
:4013400000230193052300932B0004F041FA030023803E23FB181B88002B14D1124B01221A70124B08221A703E23FC18104B0F221821180013F044F80300238003E03E233E
:40138000FB1801221A803E23FB181B881800BD4610B0B0BD649201008C110020F4230020C8000020D11C00001624002017240020E092010090B585B000AF0200FB1D1A7049
:4013C000FB1D1B78022B04D90E23FB1801221A804AE0294B1B78062B41D1284B1B78DBB21A00042313403AD1FB1D1B78002B0BD1234B1E221A82224B5B6820221A80204B1E
:401400005B6830225A8010E0FB1D1B78012B0CD11B4B96221A821A4B5B68C822D2001A80174B5B688022D2015A80164BFA1D12781A700E23FC18124B180010F09DFB03008C
:4014400023800E23FB181B88002B0DD10B4B1B78DBB204221343DAB2084B1A7004E00E23FB180422FF321A800E23FB181B881800BD4605B090BDC046162400203D24002080
:401480001C0C00203B24002080B500AF10F00CFC054B1B78DBB208221343DAB2024B1A70C046BD4680BDC0463D24002080B584B000AF78600A00FB1C1A700023BB60BB685D
:4014C000002B20D07B689A79BB681A700F23FB1800221A7012E00F23FB181B780133BA68D3180F22BA18127879688A5C1A700F23FB181A780F23FB1801321A700F23FB1836
:401500001B78052BE7D9C046BD4604B080BDC04690B585B000AF0200FB1D1A70FB1D1B78022B04D90E23FB1801221A8035E0FB1D1B78002B09D11C4B08221A811A4B3022FD
:401540005A80194B20229A800EE0FB1D1B78012B0AD1154B96221A81134B802212015A80114BE122D2009A80104BFA1D12781A700E23FC180C4B180010F084FA03002380E8
:401580000E23FB181B88002B07D1094B1B78DBB204221343DAB2064B1A700E23FB181B881800BD4605B090BD300C00203A2400203D24002080B500AF10F08EFA054B1B783C
:4015C000DBB208221343DAB2024B1A70C046BD4680BDC0463D24002090B585B000AF7860294B1B78062B05D00E23FB180422FF321A8041E07B68002B04D10E23FB18012200
:401600001A8039E00D23FB1800221A7012E00D23FB181B780D22BA1812787968895C1B4AD3180A1C5A710D23FB181A780D23FB1801321A700D23FB181B78052BE7D97B6830
:401640009A79124BDA720E23FC18104B180010F0C7F9030023800E23FB181B88002B0BD1094B05221A700A4B1B88002B04D0084B1B8818000DF022F90E23FB181B88180081
:40168000BD4605B090BDC04616240020F82300201224002090B583B000AF104B1B78052B04D0BB1D0422FF321A8011E0BC1D10F08DF9030023800A4B1B88002B01D00DF06B
:4016C00017F9BB1D1B88002B02D1044B06221A70BB1D1B881800BD4603B090BD162400201224002080B582B000AF78607B681B789AB27B6801331B789BB21B029BB21343B3
:401700009BB21800BD4602B080BDC04690B585B000AF78600F23FB1800221A707B689B890B22934232D17B68181D7A680F23FC184023002112F07CFE030023700F23FB1833
:401740001B78002B1AD17B685B681800FFF7CAFF03001A00022313409BB2002B07D00F4B1B687968822252001000984706E00B4B1B6879680622FF3210009847084B1B78EE
:40178000DBB201229343DAB2054B1A700F23FB181B781800BD4605B090BDC046F42300203D24002080B582B000AF78607B68DB880D4A934214D10D4B5B88002B08D17B6823
:4017C0009A880A4B5A807B689A78084B1A7007E0074B1B687A68911D8622520010009847C046BD4602B080BD052A00001C240020F423002080B582B000AF78607B689B88DF
:401800000B4A934210D10B4B9B88002B04D17B685A88084B9A8007E0074B1B687A68111D8622520010009847C046BD4602B080BD022900001C240020F423002080B582B01C
:4018400000AF78600C4B5A887B689B899A420ED10A4B1B6879688322520010009847084B1B78DBB201229343DAB2054B1A70C046BD4602B080BDC0461C240020F4230020E0
:401880003D24002090B585B000AF78600F23FC187B681800FFF73AFF03002370154B1B78DBB21A00012313401FD10F23FB181B78002B16D00823FB1812229A707B689A8934
:4018C0000823FB181A800823FB180F22BA181278DA700823FA187B681100186811F016FB03E07B68186811F09BFBC046BD4605B090BDC0463D24002080B582B000AF7860DB
:40190000C046BD4602B080BD80B582B000AF7860C046BD4602B080BD80B582B000AF7860C046BD4602B080BD80B582B000AF7860C046BD4602B080BD80B588B000AF786009
:40194000394B1B78022B6AD1384B1B88002B66D00823F918354B022208009B180422190003F0BFFE7B6859687B681B891A000823FB180433180003F0B4FE0823FB1818000A
:4019800001F000FB294B1B8801339AB20823FB181A80274B1B781900264A0B005B005B185B00D31802331A880823FB185A800823FB181A880823FB185B889A4221D808232F
:4019C000F9181D4B1A785B781B021A4300231204120C1B0C1B041343180010F047FF031E12D0164B1B6884225200002110009847134B1B78DBB202229343DAB2104B1A7066
:401A000002E0012000F0BCFC0D4B1B78DBB201229343DAB20A4B1A70044B00221A80C046BD4608B080BDC04617240020901100203C240020140D002028240020F423002090
:401A40003D24002080B588B000AF7860394B1B78022B6AD1384B1B88002B66D00823F918354B022208009B180422190003F039FE7B6859687B681B891A000823FB1804332D
:401A8000180003F02EFE0823FB18180001F07AFA294B1B8801339AB20823FB181A80274B1B781900264A0B005B005B185B00D31802331A880823FB185A800823FB181A8849
:401AC0000823FB185B889A4221D80823F9181D4B1A785B781B021A4300231204120C1B0C1B041343180010F0C1FE031E12D0164B1B6884225200002110009847134B1B78C3
:401B0000DBB202229343DAB2104B1A7002E0012000F036FC0D4B1B78DBB201229343DAB20A4B1A70044B00221A80C046BD4608B080BDC04617240020901100203C24002001
:401B4000140D002028240020F42300203D24002080B500AF094B00225A70084B00221A70074B1B78052B03D1054B07221A7002E0034B08221A70C046BD4680BD282400205B
:401B80001724002080B582B000AF78607B681B78032B3ED1264B1B78DBB21A000223134037D0244B1B78022B10D002DC012B05D024E0032B12D0042B18D01FE01E4B1B68FB
:401BC0000822FF3200211000984717E01A4B1B68842252000021100098470FE0164B1B680A22FF3200211000984707E0124B1B6885225200002110009847C0460C4B1B7893
:401C0000DBB202229343DAB2094B1A70094B00221A707B681B78042B05D1084B1B78052B01D1FFF737FDC046BD4602B080BDC0463D24002017240020F423002016240020BB
:401C400080B500AFC046BD4680BDC04680B584B000AF78600E23FB1800221A707B689B79002B1CD10F23FB1800221A7012E00F23FB181B787A68D35C002B04D00E23FB1836
:401C800001221A700BE00F23FB181A780F23FB1801321A700F23FB181B78052BE7D90E23FB181B781800BD4604B080BD80B582B000AF0200BB1D1A80C046BD4602B080BD86
:401CC00080B582B000AF7860C046BD4602B080BD80B588B000AF02003960FB1D1A70D44B1B78DBB201221343DAB2D14B1A70FB1D1B78712B00D919E29A00CE4BD3181B687F
:401D00009F461023FB1807221A701023FB1800225A701023FB18180005F014FD1023FB1807221A701023FB1801225A701023FB18180005F007FD0023002B01D003F00EFD8F
:401D4000BD4B1B681800FFF781FF031E11D0BA4B1B68180003F00EFDB74B1B6800211800FFF7A4FBB44B1B6801211800FFF79EFB36E0B24B1B781A003F231A40B04B1B7802
:401D80009901FC231B010B401A43AE4B1B781903F8235B020B401A43AB4B1B785904FE231B040B401343BB61BB69DAB2A74B1A70BB691B0ADAB2A54B5A70BB691B0CDAB269
:401DC000A24B9A70A14B180003F0D4FC9F4B00211800FFF76BFB9D4B01211800FFF766FB03200FF0D5FC0C23FB183F221A700C23FB1800225A700C23FB1818000FF0E6FCA4
:401E0000934B06221A709CE13B681800FFF7BAFE97E13B681A788F4B1A7092E13B687B617B691B78002B00D082E17B695B78002B0BD1894B0022DA80874B00229A80864B67
:401E4000864A1A607B69844A5A60794B1B78DBB201229343DAB2764B1A7069E1744B1B78DBB21A002023134000D063E17C4B1B78102B02D17A4B0522DA707A4B1B78784A53
:401E8000110018000FF03AFE03001A000A23FB181A800A23FB181B88002B06D0724B1B680A22BA18110036209847614B1B78DBB201221343DAB25E4B1A706A4B1B78684A65
:401EC000110018000FF006FA34E13B681800FFF7F7FE36E13B681800FFF7F2FE634B1B88002B01D00CF004FD594B02221A7028E1574B06221A7024E1554B1B78022B00D118
:401F00001AE14B4B1B78DBB21A000123134000D112E1474B1B78DBB21A00042313400BD04B4B03221A70424B1B78DBB204229343DAB23F4B1A70FFE03D4B1B78DBB21A004B
:401F4000082313400BD0424B06221A70384B1B78DBB208229343DAB2354B1A70ECE03C4B1B78032B00D0E7E0394B06221A70E3E0374B1B78022B00D1E0E02D4B1B78DBB281
:401F80001A000123134000D1D8E0294B1B78DBB21A00042313400BD02D4B04221A70244B1B78DBB204229343DAB2214B1A70C5E01F4B1B78DBB21A00082313400BD0244BBE
:401FC00006221A701A4B1B78DBB208229343DAB2174B1A70B2E01E4B1B78042B00D0ADE01B4B06221A70A9E03B681B881800FFF75DFEA6E01B4A3B681000190002231A00D2
:4020000003F06FFB134B00221A70194B00221A70FFF716FE95E0FFF79BFD92E03B685B88162B27D81E23FB183A6852881A8025E03D240020CC940100440C00207CF2FF0FA7
:402040007DF2FF0F7BF2FF0F78F2FF0F3C0C00201624002024240020A8110020A80B0020280D002028240020F423002012240020172400201E23FB1817221A801E23FB18F6
:4020800019883B681A8800231204120C1B0C1B041343180010F044FF53E03B681800FFF7F1FB4EE03B681800FFF726FC49E03B68180000F065F844E03B68180000F098FA89
:4020C0003FE000F083FE3CE03B68180000F02AFD37E03B68180000F0C9FE32E03B681800FFF71AFC2DE03B681800FFF7A7FB3B681800FFF719FC204B1B78DBB21A00012311
:4021000013401DD13B68186810F076FB18E03B681800FFF711FC14E03B681800FFF792FC0FE03B681800FFF7EFFB0AE0C04608E0C04606E0C04604E0C04602E0C04600E0DB
:40214000C0460D4B1B78DBB21A00112313400ED0094B1B78DBB201229343DAB2064B1A70064B1B68FA1D1278396810009847C046BD4608B080BDC0463D240020F4230020CD
:4021800080B586B000AF78600023FB60774B1B78012B00D0E6E0764B1B78DBB21A000223134000D1DEE00A23FB187A6812891A800A23FB181B88062B05D00A23FB181B8873
:4021C000142B00D0C7E00823FB187A6852891A801423FB1800221A80ABE07B685A681423FB181B88D318FB601323FB1800221A70FB681A885F4B1B889A4200D27CE0FB6877
:402200001A885C4B5B889A4200D975E00A23FB181B88062B00D068E0FB6801221A751623FB1800221A8055E01623FB181A88524913005B009B185B00CB1804331A88FB68C6
:402240009B889A423FD11623FB181A884A4913005B009B185B005B5A002B13D11623FB181A88454913005B009B185B00FA68CB1811000422180003F034FA1323FB18012275
:402280001A7020E01623FB181B88012B0FD81623FB181B885A1C384913005B009B185B00CB1804331A88FB689B889A420BD0334B1B68FA68111D0C22FF3210009847132322
:4022C000FB1801221A701623FB181A881623FB1801321A801623FB181B88022B0CD81323FB181B78002B9FD006E0FB6802221A75FB68180000F046FE1323FB181B78002BEF
:402300000DD11B4B1B78DBB21A000123134006D01A4B1B68F9681222FF32100098471423FB181422B9180A22BA18098812888A181A801423FA180823FB1812881B889A42DF
:4023400000D24AE70A4B1B78DBB201229343DAB2074B1A7006E0094B1B680822FF32002110009847C046BD4606B080BD172400203D24002018240020140D0020F4230020B0
:4023800080B582B000AF0200FB1D1A70FB1D1B78002B06D0344B1B780133DAB2324B1A700CE0314B00221A70304B00221A8005E02D4B1B780133DAB22B4B1A702A4B1B78DB
:4023C000022B19D8284B1B781900294A0B005B005B185B009A5A274B1B889A42E8D3224B1B781900224A0B005B005B185B009A5A204B5B889A42DBD81B4B1B78022B28D8A9
:40240000194B1B781A0013005B009B185B00184A9918194B1A785B781B021A4300231204120C1B0C1B041343180010F01FFA031E15D0124B1B6884225200002110009847A7
:402440000F4B1B78DBB202229343DAB20C4B1A7005E00C4B03221A70002000F0ADFAC046BD4602B080BDC0463C24002090110020140D00201824002028240020F42300205A
:402480003D2400201724002080B582B000AF78607B68DB884F4A934200D184E04D4A93420BDC4D4A934224D04B4A934200DD68E0A822920193420AD087E0484A93423CD041
:4024C000474A93424BD0474A934224D07DE0464B1B88002B04D17B689A88434B1A8074E0424B1B687A68911D86225200100098476BE03D4B5B88002B04D17B689A883A4B26
:402500005A8062E0394B1B687A68911D862252001000984759E0344B1B89002B04D17B689A88314B1A8150E0304B1B687A68911D862252001000984747E02B4B5B89002B34
:4025400004D17B689A88284B5A813EE0274B1B687A68911D862252001000984735E0224B9B89002B04D17B689A881F4B9A812CE01E4B1B687A68911D862252001000984706
:4025800023E0194B9B88002B04D17B689A88164B9A801AE0154B1B687A68911D862252001000984711E0104BDB88002B04D17B689A880D4BDA8007E00C4B1B687A68911D04
:4025C0008622520010009847C046C046BD4602B080BDC046032A0000012A0000A62A0000C92A0000042A00002C240020F423002090B593B000AF7860D44B1B78DBB21A0096
:402600000223134000D1D1E13E23FB187A6812891A803C23FB187A6852891A807B685B683B64CB4B1B78032B00D0C7E04623FB1800221A80B8E03B6C1800FFF753F80300E5
:402640001A002423FB181A803B6C02333B643B6C1A782423FB189A703B6C01333B643B6C1800FFF73FF803001A002423FB189A803B6C02333B643E23FB181B88152B33D167
:402680002423FB1802229A752423FB180622396C9B181022180003F024F83B6C10333B64AC4B1B781900AC4A0B005B005B185B00D31804331B881A00A84B9A425DD0A54B39
:4026C0001B78012B5BD9A34B1B78022B57D8A14B1B789BB2023B9BB22422BA181100180000F0B8FCC0464AE03E23FB181B88072B48D12423FB1801229A753B6C1800FEF7FD
:40270000F1FF03001A002423FB18DA803B6C02333B64904B1B7819008F4A0B005B005B185B00D31804331B88C0225201934203D08B4A934206D00BE02423FB181800FFF754
:40274000A3FE1FE02423FB181800FFF72BF819E0804B1B78012B14D97E4B1B78022B10D87C4B1B789BB2023B9BB22422BA181100180000F06FFCC04603E0C04602E0C046A9
:4027800000E0C046714B1B78DBB201229343DAB26E4B1A704623FB184622B9183E22BA18098812888A181A804623FA183C23FB1812881B889A4200D23DE7F7E0644B1B782C
:4027C000022B00D0F2E04623FB1800221A80E4E03B6C1800FEF786FF03001A000C23FB181A803B6C02333B643B6C1800FEF77AFF03001A000C23FB185A803B6C02333B6480
:402800003B6C1800FEF76EFF03001A000C23FB189A803B6C02333B643E23FB181B88062B30D10C23FB1802229A7510F09DF80C23FB1859884B4B1A785B781B021A43002375
:402840001204120C1B0C1B041343180010F02CF8031E07D1444B0C22BA1813CA13C313CA13C388E0414B1B6884225200002110009847364B1B78DBB202229343DAB2334B3A
:402880001A7078E03E23FB181B88082B00D072E00C23FB1801229A753B6C1800FEF722FF03001A000C23FB18DA803B6C02333B644423FB1800221A8033E04423FB181A88E8
:4028C000254913005B009B185B00CB1804331A880C23FB18DB889A421CD14423FB181A881D4913005B009B185B005B5A002B11D14423FB181A88184913005B009B185B000B
:402900000C22BA180220CB1811180422180002F0E8FE0BE04423FB181A884423FB1801321A804423FB181B88022BC6D9094B1B781900094A0B005B005B185B00D318043373
:402940001B881A000A4B9A4214D014E03D240020172400203C240020140D0020FEFF0000011800002824002090110020F423002012180000C0460F4B1B78DBB201229343D7
:40298000DAB20C4B1A704623FB184622B9183E22BA18098812888A181A804623FA183C23FB1812881B889A4200D211E7C046BD4613B090BD3D24002080B582B000AF0200DA
:4029C000FB1D1A70FB1D1B78002B06D0354B1B780133DAB2334B1A7009E0324B00221A7005E0304B1B780133DAB22E4B1A702D4B1B78022B19D82B4B1B7819002A4A0B001C
:402A00005B005B185B009A5A284B1B889A42E8D3244B1B781900244A0B005B005B185B009A5A224B5B889A42DBD81E4B1B78022B2DD81C4B1B781A001B4913005B009B1875
:402A40005B001B4A585ACB185B881B04034319001378527812021A4300231204120C1B0C1B04134318000FF0E5FE031E15D0114B1B680A22FF320021100098470E4B1B78AF
:402A8000DBB202229343DAB20B4B1A7005E00B4B04221A70002000F0E9F8C046BD4602B080BDC0463C240020140D00201824002028240020F42300203D24002017240020AD
:402AC00080B582B000AF3B0000221A803B0000225A80114B1B78002B09D1104B5B8801339AB23B001A800E4B1A893B005A803B1D3A0012681A603A1D002311880904090C3F
:402B00001B0C1B040B43528812041B041B0C13431800BD4602B080BD3C2400201C240020140D002080B58AB000AF78600823FB1800225A804A4B1B78042B00D08BE0494BF4
:402B40001B78DBB21A000223134000D183E01E23FB187A6812891A807B681A7B0823FB181A750823FB187A6812881A800823FB181B7D012B04D12623FB1804221A8003E095
:402B80002623FB1812221A807B685B683B622423FB1800221A804EE03B6A1800FEF7A2FD03001A000823FB185A803B6A02333B620823FB181B7D022B15D10823FB183A6A9C
:402BC000043311001022180002F08BFD3B6A10333B62254B1B78012B23D10823FB18180000F0FEFB1DE03B6A1800FEF77BFD03001A000823FB189A803B6A02333B621A4B6A
:402C00001B78002B04D10823FB181800FEF7F2FD154B1B78012B04D10823FB18180000F0DFFB2423FB182422B9182622BA18098812888A181A802423FA181E23FB1812887A
:402C40001B889A42A8D3074B1B78DBB201229343DAB2044B1A70C046BD460AB080BDC046172400203D2400203C24002080B584B000AF0200FB1D1A700C23FB1800221A806E
:402C80000C23FB1800225A804A4B1B78012B17D0FB1D1B78002B0DD0464B1B780133DAB2444B1A70434B1B78012B09D1FB1D00221A7005E03F4B00221A70FB1D01221A7020
:402CC0003C4B1B78012B0CD1FB1D1B78180000F0C5FA03001A000C23FB181A60FB1D01221A70344B1B78012B06D0FFF7E9FE03001A000C23FB181A600C23FB181A882E4B7A
:402D00001B889A4215D90C23FB181A882A4B5B889A420ED80C23FB185A88274B1B889A4207D30C23FB181A880C23FB185B889A4203D9204B1B78012BA6D91E4B1B78012BA7
:402D400021D80C23F9181D4B1A785B781B021A4300231204120C1B0C1B04134318000FF053FD031E21D0164B1B6885225200002110009847134B1B78DBB202229343DAB276
:402D8000104B1A7011E0104B05221A700C4B1B68892252000021100098470A4B1B78DBB202229343DAB2074B1A70C046BD4604B080BDC0463C24002018240020282400202B
:402DC000F42300203D2400201724002080B500AF244B1B78DBB21A00022313403FD0224B1B78022B17D002DC012B05D037E0032B1DD0042B27D032E01B4B02221A7000201B
:402E0000FFF7BEFA174B1B78DBB201229343DAB2144B1A7023E00120FFF7B2FA114B1B78DBB201229343DAB20E4B1A7017E00120FFF7C2FD0B4B1B78DBB201229343DAB282
:402E4000084B1A700BE00120FFF710FF054B1B78DBB201229343DAB2024B1A70C046C046BD4680BD3D2400201724002080B582B000AF7860084B1B78DBB21A00022313407D
:402E800005D07B689B790A2B01D1FFF79FFFC046BD4602B080BDC0463D24002080B582B000AFBB1D00221A8060E0BB1D1B889A1C324913005B009B185B005B5A002B50D119
:402EC0003B1D00221A8040E0BB1D1B882C4A1B01D3180C331A683B1D1B881B01D31800221A80BB1C00221A8019E0BB1D1B88244A1B01D3180C331A683B1D1B881B01D318E8
:402F0000D968BB1C1A8813005B009B189B00CB1800221A80BB1C1A88BB1C01321A80BB1D1B88174A1B01D3180C331A683B1D1B881B01D3189B7A9BB2BA1C12889A42D4D364
:402F40003B1D1A883B1D01321A80BB1D1B880C4A1B01D31809331B789BB23A1D12889A42B2D3BB1D1A88BB1D01321A80BB1D1B88002B9AD0C046BD4602B080BD140D002084
:402F80004C0D002080B584B000AF78600D23FB1800221A700E23FB1800221A8046E00E23FB181B88284A1B01D31808331B78022B35D10E23FB181B88234A1B01D3180433A0
:402FC00018687B6804331022190002F07BFB031E25D10E23FB181B889A1C1C4913005B009B185B005B5A002B19D10E23FB181B889A1C164913005B009B185B007A68CB18E8
:4030000011000422180002F06CFB114B1B780133DAB20F4B1A700D23FB1801221A700E23FB181A880E23FB1801321A800E23FB181B88002B04D10D23FB181B78002BAED008
:40304000C046BD4604B080BD4C0D0020140D00203C24002080B584B000AF02003960BB1D1A800D23FB1800221A70774B1B68002B0FD0764B1B88BA1D12889A4206D1724B74
:403080001B683A681288013A92B21A806E4B00221A600E23FB1800221A80ABE00C23FB1800221A703B689B7D022B27D1BB1D1B88674A1B01D3180C331A680E23FB181B88AF
:4030C0001B01D3181B7A022B18D1BB1D1B88604A1B01D3180C331A680E23FB181B881B01D31858683B6806331022190002F0EAFA031E03D10C23FB1801221A703B689B7DE7
:40310000012B27D1BB1D1B88514A1B01D3180C331A680E23FB181B881B01D3181B7A012B18D1BB1D1B884A4A1B01D3180C331A680E23FB181B881B01D31858683B68063394
:403140000222190002F0BEFA031E03D10C23FB1801221A700C23FB181B78012B43D1BB1D1B883B4A1B01D3180C331A680E23FB181B881B01D3181B88002B34D1BB1D1B886B
:40318000334A1B01D3180C331A680E23FB181B881B01D3183A6892881A80BB1D1B882C4A1B01D3180C331A680E23FB181B881B01D3183A6892785A72BB1D1B88244A1B0162
:4031C000D3180C331A680E23FB181B881B01D3189A1C1D4B1A601D4BBA1D12881A800D23FB1801221A700E23FB181A880E23FB1801321A80BB1D1B88154A1B01D318093326
:403200001B789BB20E22BA1812889A4205D20D23FB181B78002B00D140E70B4B1B68002B0DD0094B1A680B4B1B7818000A4903005B001B185B00CB1802331B881380C0461B
:40324000BD4604B080BDC046B4110020B81100204C0D00203C240020140D002080B584B000AF0200FB1D1A700823FB1800221A800823FB1800225A80FB1D1B78002B2DD089
:40328000524B1B880133524A1288524912018A1809321278934206D24C4B1B8801339AB24A4B1A8023E04A4B1B88013309D1484B1B8801339AB2464B1A80444B00221A8044
:4032C00015E0454B1B780133DAB2434B1A703F4B1B8801339AB23D4B1A8008E03C4B00221A803A4B00221A80FB1D01221A70384B1B88384A1B01D31809331B789AB2334B96
:403300001B889A421FD9324B1B88324A1B01D3180C331A682D4B1B881B01D3181B8801339AB20823FB181A80294B1B88294A1B01D3180C331A68254B1B881B01D3185A8847
:403340000823FB185A800823FB181A88234B1B889A4215D90823FB181A88204B5B889A420ED80823FB185A881C4B1B889A4207D30823FB181A880823FB185B889A420CD9E8
:40338000134B1B88134A1B01D31809331B789AB20E4B1B889A4200D96EE70C23FB180822BA1812681A600C23FA18002311880904090C1B0C1B040B43528812041B041B0C6C
:4033C00013431800BD4604B080BDC046B2110020B01100204C0D00203C2400201824002080B584B000AF78600E23FB1800221A700F23FB1800221A70B9E00D23FB1800227D
:403400001A707B681B7D022B37D1664B1B88664A1B01D3180C331A68644B1B881B01D318D9680F23FB181A7813005B009B189B00CB181B7A022B20D15A4B1B885A4A1B01BB
:40344000D3180C331A68594B1B881B01D318D9680F23FB181A7813005B009B189B00CB1858687B6804331022190002F02BF9031E03D10D23FB1801221A707B681B7D012BD4
:4034800037D1484B1B88484A1B01D3180C331A68464B1B881B01D318D9680F23FB181A7813005B009B189B00CB181B7A012B20D13C4B1B883C4A1B01D3180C331A683B4BD2
:4034C0001B881B01D318D9680F23FB181A7813005B009B189B00CB1858687B6804330222190002F0EFF8031E03D10D23FB1801221A700D23FB181B78012B31D1294B1B887B
:40350000294A1B01D3180C331A68284B1B881B01D318D9680F23FB181A7813005B009B189B00CB181B88002B1AD11E4B1B881E4A1B01D3180C331A681C4B1B881B01D31876
:40354000D9680F23FB181A7813005B009B189B00CB187A6852881A800E23FB1801221A700F23FB181A780F23FB1801321A700D4B1B880D4A1B01D3180C331A680B4B1B8861
:403580001B01D3189B7A0F22BA1812789A4205D20E23FB181B78002B00D12EE7C046BD4604B080BDB01100204C0D0020B211002080B500AF064B1B78002B04D100F00AF8D6
:4035C000034B01221A7000F03FF8C046BD4680BDBA11002090B583B000AFFF2000F044F8B82000F05BF8012000F068F8012000F075F8FC1D01F0E1FA03002370104A104BCC
:403600001B78DBB201210B43DBB21370FB1D1B78180001F0D6FA0B4A0A4B1B78DBB202218B43DBB21370074A064B1B78DBB204218B43DBB21370C046BD4603B090BDC046C7
:4036400090000F4070000F4080B500AF054A054B1B78DBB201210B43DBB21370C046BD4680BDC04670000F4080B582B000AF0200FB1D1A70FB1D1B78002B07D0054AFB1DB0
:403680001B781370044AFB1D1B781370C046BD4602B080BD40000F4000000F4080B582B000AF0200FB1D1A70034AFB1D1B781370C046BD4602B080BD10000F4080B582B0AF
:4036C00000AF0200FB1D1A70034AFB1D1B781370C046BD4602B080BD20000F4080B582B000AF0200FB1D1A70034AFB1D1B781370C046BD4602B080BD30000F4080B582B082
:4037000000AF0200FB1D1A70064B064A126806491140FA1D127892040A431A60C046BD4602B080BD08020440FFFFE3FF80B582B000AF0200FB1D1A70064B064A1268064933
:403740001140FA1D127892040A431A60C046BD4602B080BD08030440FFFFE3FF80B582B000AF0200FB1D1A70064B064A126806491140FA1D127852050A431A60C046BD4696
:4037800002B080BD08030440FFFF1FFF80B500AF064B1B78002B04D100F00AF8034B01221A7000F03FF8C046BD4680BDBB11002090B583B000AFFF2000F044F8B82000F067
:4037C0005BF8012000F068F8012000F075F8FC1D01F0F3F903002370104A104B1B78DBB201210B43DBB21370FB1D1B78180001F0E8F90B4A0A4B1B78DBB202218B43DBB2C9
:403800001370074A064B1B78DBB204218B43DBB21370C046BD4603B090BDC04693000F4073000F4080B500AF054A054B1B78DBB201210B43DBB21370C046BD4680BDC0461E
:4038400073000F4080B582B000AF0200FB1D1A70FB1D1B78002B07D0054AFB1D1B781370044AFB1D1B781370C046BD4602B080BD43000F4003000F4080B582B000AF020032
:40388000FB1D1A70034AFB1D1B781370C046BD4602B080BD13000F4080B582B000AF0200FB1D1A70034AFB1D1B781370C046BD4602B080BD23000F4080B582B000AF0200DA
:4038C000FB1D1A70034AFB1D1B781370C046BD4602B080BD33000F4080B582B000AF786000F050F87B68180000F00AF8032000F015F800F03BF8C046BD4602B080BDC046DD
:4039000080B582B000AF7860034B7A681A66C046BD4602B080BDC0460000002090B585B000AF0200FB1D1A700623FB600B23FC1801F043F9030023700B4B0B4A1268C0216F
:403940008A431100FA1D1078FA68904002000A431A600B23FB181B78180001F032F9C046BD4605B090BDC04608E400E080B500AF034B802252001A60C046BD4680BDC046FE
:4039800000E100E080B500AF034B802252001A60C046BD4680BDC04680E100E080B500AF034B802252001A60C046BD4680BDC04680E200E090B585B000AF78600C23FC18A7
:4039C00001F0FBF8030023707B68022B00D8AFE07B68302B00D9ABE05C4B1B78DBB21A007B689A420AD35A4A0F23FB1812781A70584A0E23FB1812781A703FE0564B1B786D
:403A0000DBB21A007B689A420AD3544A0F23FB1812781A70524A0E23FB1812781A702DE0504B1B78DBB21A007B689A420AD34E4A0F23FB1812781A704C4A0E23FB18127885
:403A40001A701BE04A4B1B78DBB21A007B689A420AD3484A0F23FB1812781A70464A0E23FB1812781A7009E0444A0F23FB1812781A70434A0E23FB1812781A707B68DA1EF3
:403A80000B23FB183F498A5C1A700B23FB181B782F2B0DD97B682A2B0AD93B4B19221A60052001F081F80D23FB1819221A7007E0354B1B68DAB20D23FB183F210A401A70DF
:403AC0000B23FA180D23FB1812781B789A4208D22D4B7A68033A2B498A5C1A60052001F063F82A4B7A6826498C4662441278D2B21A60274B0F22BA1812781A60254B0E22B5
:403B0000BA1812781A60052000F0C2F80B23FA180D23FB1812781B789A420CD91A4B7A68033A18498A5C1A60052001F03DF802E0002000F07BF80C23FB181B78180001F0AC
:403B400040F8C046BD4605B090BDC04640F3FF0F41F3FF0F42F3FF0F43F3FF0F44F3FF0F45F3FF0F46F3FF0F47F3FF0F48F3FF0F49F3FF0F4AF3FF0F4BF3FF0F4CF3FF0F61
:403B80004DF3FF0FCC9601002CFF0B4028FF0B401CFF0B4020FF0B4080B584B000AF78600023FB60154B154A126801210A431A60134B144A1A60144B134A126880210902F4
:403BC0000A431A607B68002B12D01023FB600CE0012000F05DF800F019F8031E02D00023FB6005E07B68013B7B607B68002BEFD1FB681800BD4604B080BDC04660F02E40DC
:403C000078002E400220000010002E4080B582B000AF054B1B68012213407B607B681800BD4602B080BDC0460C002E4080B582B000AF0200FB1D1A7001BEC046BD4602B023
:403C400080BDC04680B582B000AF786009E00D4B1B68180000F0A8FF7B680B4A944663447B607A6880231B029A42F0D8074B1B687A685343180000F097FFC046BD4602B020
:403C800080BDC046680D00200080FFFF600D002080B582B000AF0200BB1D1A80BB1D1B88044A12785343180000F07EFFC046BD4602B080BD640D002080B500AF0F4B0F4A09
:403CC000126801218A431A600C4B0C4A126802218A431A600A4B0A4A126830218A4310210A431A60064B064A126807218A4301210A431A60C046BD4680BDC04600F02E4074
:403D000000FF2E4080B500AF0F4B0F4A126802218A431A600D4B0D4A126807218A4302210A431A60094B094A126830218A4320210A431A60044B044A126801210A431A604C
:403D4000C046BD4680BDC04600F02E4000FF2E4080B500AFFFF7B0FF044B044A1268802109060A431A60C046BD4680BD00F02E4080B584B000AF78600C4B1B680122134031
:403D8000FB607B68002B02D0012B03D005E0FFF793FF06E0FFF7B6FF03E00020FFF746FFC046FB681800BD4604B080BD00F02E4090B583B000AFFC1D00F0FFFE03002370F7
:403DC000074B074A1268C02109020A431A60FB1D1B78180000F0F5FEC046BD4603B090BD00010B4080B500AF054B1A68C0231B02134001D0012300E000231800BD4680BD9F
:403E000000010B4090B583B000AFFC1D00F0D5FE030023700D4B0D4A12680D490A408021C9010A431A60094B084A126808490A40802109020A431A60FB1D1B78180000F0C1
:403E4000C0FEC046BD4603B090BDC04600010B40FF3FFFFF80B582B000AF78607B68022B02D90020FFF7E2FE064B1A687B68DB000133DA401300012213401800BD4602B0E9
:403E800080BDC04610020B4080B584B000AF786039607B68022B02D90020FFF7C7FE7B681800FFF7D7FF031E16D10D4B1B687A68D200032191400A00D2431340FB603B6850
:403EC00003221A407B68DB009A401300FA681343FB60034BFA681A60C046BD4604B080BD0C020B4080B584B000AF786039607B68002B02D07B68012B01D1012300E0002397
:403F0000002B02D10020FFF791FE7B681800FFF7A1FF031E16D10D4B1B687A68D2000232012191400A00D2431340FB607B68DB0002333A689A401300FA681343FB60034BDF
:403F4000FA681A60C046BD4604B080BD0C020B4080B582B000AF7860144B144A11687A680A431A607B680122134005D0C0460020FFF770FF031EFAD07A6880235B0013406E
:403F800005D0C0460120FFF765FF031EFAD07A6880235B02134005D0C0460220FFF75AFF031EFAD0C046BD4602B080BD10020B4080B584B000AF786039607B68002B02D096
:403FC0007B68012B01D1012300E00023002B02D10020FFF72BFE174B1B689B0F9B0701D1C92300E05D231800FFF752FE124B1B68FB607B681B01114A9A401300DA43FB68CD
:404000001340FB600C4B7A68120139689140FA680A431A60074B1B689B0F9B0701D1432300E01F231800FFF733FEC046BD4604B080BDC0460C020B4008020B40FFFF000085
:4040400080B500AF034B1B68034A13401800BD4680BDC04610020B400404040090B585B000AF78600B23FC1800F0A7FD03002370FFF7B8FE031E04D00123FB60FFF7C2FEE1
:4040800001E00023FB607B680D4A13407B600D4B0C4A12680C4911407A680A431A60094B1B68FB68012B01D1FFF782FE0B23FB181B78180000F085FDC046BD4605B090BDAB
:4040C0000404040010020B40FBFBFBFF80B500AF104B8022D2041A600E4B0E4A12681A60002000F067F80B4B0A4A12681A600A4B0C221A60012000F0ABF8084B31221A60B3
:40410000642000F067F8002000F074F8C046BD4680BDC04640012040640120406801204090B583B000AFFC1D00F047FD03002370094B094A126802210A431A60FB1D1B78F5
:40414000180000F03EFD1821022000F063F8C046BD4603B090BDC0460000204080B500AF064B1B78002B04D1FFF7B0FF034B01221A70FFF7D5FFC046BD4680BDBC11002082
:4041800090B583B000AFFC1D00F017FD03002370074B074A126802218A431A60FB1D1B78180000F00EFDC046BD4603B090BDC0460000204080B582B000AF7860044B7A6852
:4041C0001204120C1A60C046BD4602B080BDC0464801204080B582B000AF7860044B7A681204120C1A60C046BD4602B080BDC0465401204080B582B000AF7860044B7A68CB
:404200001204120C1A60C046BD4602B080BDC0464C01204090B585B000AF786039600F23FC1800F0CAFC03002370084B79683A6891400A001A600F23FB181B78180000F0EE
:40424000C0FCC046BD4605B090BDC0460800204080B582B000AF7860034B7A681A60C046BD4602B080BDC0467801204080B500AF104B8022D2041A600E4B0E4A12681A60C4
:40428000002000F067F80B4B0A4A12681A600A4B0C221A60012000F0ABF8084B31221A60642000F067F8002000F074F8C046BD4680BDC046C0012040E4012040E8012040D6
:4042C00090B583B000AFFC1D00F077FC03002370094B094A126808210A431A60FB1D1B78180000F06EFC1821082000F063F8C046BD4603B090BDC0460000204080B500AF58
:40430000064B1B78002B04D1FFF7B0FF034B01221A70FFF7D5FFC046BD4680BDBD11002090B583B000AFFC1D00F047FC03002370074B074A126808218A431A60FB1D1B78BA
:40434000180000F03EFCC046BD4603B090BDC0460000204080B582B000AF7860044B7A681204120C1A60C046BD4602B080BDC046C801204080B582B000AF7860044B7A6879
:404380001204120C1A60C046BD4602B080BDC046D401204080B582B000AF7860044B7A681204120C1A60C046BD4602B080BDC046CC01204090B585B000AF786039600F2358
:4043C000FC1800F0FAFB03002370084B79683A6891400A001A600F23FB181B78180000F0F0FBC046BD4605B090BDC0460800204080B582B000AF7860034B7A681A60C04621
:40440000BD4602B080BDC046F801204080B500AF064B1B78002B04D100F00AF8034B01221A7000F047F8C046BD4680BDBE11002090B583B000AF1D4B1B78DAB2FB1D3F21EC
:404440008A431A70194AFB1D1B7809210B43DBB21370174A164B1B78DBB201210B43DBB21370C72000F036F8C72000F053F8642000F060F8042000F06DF8BC1D00F09DFB20
:40448000030023700A4A0A4B1B78DBB210210B43DBB21370BB1D1B78180000F092FB00F029F8C046BD4603B090BDC04672000F4092000F4080B500AF0549054B1B78DBB2AA
:4044C000802252421343DBB20B70C046BD4680BD72000F4080B582B000AF0200FB1D1A70034AFB1D1B781370C046BD4602B080BD02000F4080B500AF01E000F045F800F0C1
:4045000039F803001A0010231340F6D1C046BD4680BDC04680B582B000AF0200FB1D1A70034AFB1D1B781370C046BD4602B080BD42000F4080B582B000AF0200FB1D1A701C
:40454000034AFB1D1B781370C046BD4602B080BD22000F4080B582B000AF0200FB1D1A70034AFB1D1B781370C046BD4602B080BD82000F4080B500AF024B1B78DBB21800F0
:40458000BD4680BD62000F4080B500AF024B1B78DBB21800BD4680BD52000F4080B582B000AF786000F04EF87B68180000F00AF8032000F015F800F03BF8C046BD4602B0B1
:4045C00080BDC04680B582B000AF7860034B7A685A64C046BD4602B080BDC0460000002090B585B000AF0200FB1D1A700E23FB600B23FC1800F0E1FA030023700A4B0A4AD9
:4046000012680A491140FA1D1078FA68904002000A431A600B23FB181B78180000F0D1FAC046BD4605B090BD00E400E0FF3FFFFF80B500AF024B02221A60C046BD4680BDFB
:4046400000E100E080B500AF024B02221A60C046BD4680BD80E100E080B582B000AF094B1B68DAB2FB1D7F218A431A70054BFA1D12781A60FB1D1B78DB09DBB21800BD46F9
:4046800002B080BD1002044080B582B000AF786000F04EF87B68180000F00AF8032000F015F800F03BF8C046BD4602B080BDC04680B582B000AF7860034B7A689A64C04641
:4046C000BD4602B080BDC0460000002090B585B000AF0200FB1D1A701623FB600B23FC1800F06BFA030023700A4B0A4A12680A491140FA1D1078FA68904002000A431A60B3
:404700000B23FB181B78180000F05BFAC046BD4605B090BD00E400E0FFFF3FFF80B500AF024B04221A60C046BD4680BD00E100E080B500AF024B04221A60C046BD4680BD4E
:4047400080E100E080B500AF094B802292041A60084B4D221A60022000F068F8064B180000F048F8002000F035F8C046BD4680BD0001204024012040FFFF000090B583B0E8
:4047800000AFFC1D00F019FA03002370074B074A126801210A431A60FB1D1B78180000F010FAC046BD4603B090BDC0460000204080B500AF064B1B78002B04D1FFF7C2FFE7
:4047C000034B01221A70FFF7D9FFC046BD4680BDBF11002080B582B000AF7860044B7A681204120C1A60C046BD4602B080BDC0460801204080B582B000AF7860044B7A6867
:404800001204120C1A60C046BD4602B080BDC0461401204080B500AF034B1B681B041B0C1800BD4680BDC0460C01204080B582B000AF7860034B7A681A60C046BD4602B03E
:4048400080BDC0463801204080B582B000AF7860034B7A681A60C046BD4602B080BDC0463001204080B582B000AF786000F050F87B68180000F00AF8032000F015F800F012
:404880003BF8C046BD4602B080BDC04680B582B000AF7860034B84217A685A50C046BD4602B080BD0000002090B585B000AF0200FB1D1A700E23FB600B23FC1800F07DF941
:4048C000030023700A4B0A4A12680A491140FA1D1078FA68904002000A431A600B23FB181B78180000F06DF9C046BD4605B090BD10E400E0FF3FFFFF80B500AF034B802290
:4049000092021A60C046BD4680BDC04600E100E080B500AF034B802292021A60C046BD4680BDC04680E100E080B584B000AF0200FB1D1A700E4B1B68DAB20F23FB18012162
:404940008A431A70FB1D1B7801221340D9B20F23FB180F22BA1812780A431A70044B0F22BA1812781A60C046BD4604B080BDC0460000044080B584B000AF0200FB1D1A7035
:404980000F4B1B68DAB20F23FB1804218A431A70FB1D1B789B00DBB204221340D9B20F23FB180F22BA1812780A431A70044B0F22BA1812781A60C046BD4604B080BDC046F7
:4049C0000003044080B500AF094B802292041A60084B4D221A60022000F068F8064B180000F048F8002000F035F8C046BD4680BD80012040A4012040FFFF000090B583B060
:404A000000AFFC1D00F0D9F803002370074B074A126804210A431A60FB1D1B78180000F0D0F8C046BD4603B090BDC0460000204080B500AF064B1B78002B04D1FFF7C2FFE5
:404A4000034B01221A70FFF7D9FFC046BD4680BDC011002080B582B000AF7860044B7A681204120C1A60C046BD4602B080BDC0468801204080B582B000AF7860044B7A6863
:404A80001204120C1A60C046BD4602B080BDC0469401204080B500AF034B1B681B041B0C1800BD4680BDC0468C01204080B582B000AF7860034B7A681A60C046BD4602B0BC
:404AC00080BDC046B801204080B582B000AF7860034B7A681A60C046BD4602B080BDC046B001204080B582B000AF786000F04EF87B68180000F00AF8032000F015F800F092
:404B000039F8C046BD4602B080BDC04680B582B000AF7860034B8C217A685A50C046BD4602B080BD0000002090B585B000AF0200FB1D1A701E23FB600B23FC1800F03DF8E9
:404B4000030023700A4B0A4A126892009108FA1D1078FA68904002000A431A600B23FB181B78180000F02DF8C046BD4605B090BD10E400E080B500AF034B802212031A6074
:404B8000C046BD4680BDC04600E100E080B500AF034B802212031A60C046BD4680BDC04680E100E0000000000230800803D00138FDD1C046C046C0467047EFF3108072B601
:404BC000704780F31088704780B582B000AF78600A00BB1C1A80BB1C1A887B681A60C046BD4602B080BDC04680B582B000AF78600A00BB1C1A80BB1C1A887B681A60C046BA
:404C0000BD4602B080BDC04680B584B000AF494B1B78DBB21B02484A1278D2B21343FB60464B1B78DBB21B02454A1278D2B21343BB60BB68434A934207D1FB68072B04D19F
:404C4000414BBB600423FB6009E0BA68D4231B019A4204D1FB68042B01D13B4BBB603B4BBA681A603A4BFA681A603A4B1B78DBB21B02394A1278D2B21343FB60FA688023AB
:404C80009B019A4202D0FB68002B01D1334BFB60334BFA681A60334B1B78DBB21B02324A1278D2B21343FB60FB68304A934206D0FB682F4A934202D0FB68052B01D12D4B39
:404CC000FB602D4BFA681A602C4B1B681B097B602B4B1B68AA2B29D17B68012B26D9214B1B78DBB20E2B21D1264B1B78DBB29BB21B0299B2244B1B78DBB29AB2BB1C0A433A
:404D00001A80224BBA1C12881A60214B1B78DBB29BB21B0299B21F4B1B78DBB29AB23B000A431A801C4B3A0012881A60C046BD4604B080BD59F1FF0F58F1FF0F5FF1FF0F8D
:404D40005EF1FF0F580B0000580D00006C002E4074002E405BF1FF0F5AF1FF0F0220000078002E405DF1FF0F5CF1FF0F0F0F000005050000050F000080002E40EC0F00F0CB
:404D8000E00F00F06DF2FF0F6CF2FF0F84002E406FF2FF0F6EF2FF0F94002E4080B582B000AF0200BB1D1A80BB1D1B881800FEF76FFFC046BD4602B080BDC04680B582B085
:404DC00000AF78607B681800FEF73CFFC046BD4602B080BD80B500AF00F0ECF8C046BD4680BDC04680B500AF00F0F0F8C046BD4680BDC04680B500AF00F0E8F8044B1800E2
:404E000000F0A2F8022000F0ADF8C046BD4680BD1950000080B500AF034B180000F080F8C046BD4680BDC0461950000080B500AF014B1800BD4680BD0202000080B582B028
:404E400000AF78602B231800BD4602B080BDC04680B582B000AF78602B231800BD4602B080BDC04680B582B000AF78602B231800BD4602B080BDC04680B582B000AF7860C7
:404E80002B231800BD4602B080BDC04680B582B000AF78602B231800BD4602B080BDC04680B582B000AF78602B231800BD4602B080BDC04680B582B000AF78602B231800A8
:404EC000BD4602B080BDC04680B582B000AF78602B231800BD4602B080BDC04680B500AF2B231800BD4680BD80B582B000AF0200FB1D1A702B231800BD4602B080BDC046CC
:404F000080B582B000AF786039602B231800BD4602B080BD80B500AFC046BD4680BDC04680B582B000AF786000F050F87B68180000F00AF8022000F015F800F03BF8C04607
:404F4000BD4602B080BDC04680B582B000AF7860034B7A681A67C046BD4602B080BDC0460000002090B585B000AF0200FB1D1A700623FB600B23FC18FFF71FFE0300237040
:404F80000B4B0B4A1268C0218A431100FA1D1078FA68904002000A431A600B23FB181B781800FFF70EFEC046BD4605B090BDC0460CE400E080B500AF034B802252011A6003
:404FC000C046BD4680BDC04600E100E080B500AF034B802252011A60C046BD4680BDC04680E100E090B583B000AFFC1DFFF7E5FD03002370074B074A126804218A431A603F
:4050000030BFFB1D1B781800FFF7DBFDC046BD4603B090BD10ED00E080B500AF14F020F8C046BD4680BDC046002243088B4274D303098B425FD3030A8B4244D3030B8B4266
:4050400028D3030C8B420DD3FF22090212BA030C8B4202D31212090265D0030B8B4219D300E0090AC30B8B4201D3CB03C01A5241830B8B4201D38B03C01A5241430B8B42C3
:4050800001D34B03C01A5241030B8B4201D30B03C01A5241C30A8B4201D3CB02C01A5241830A8B4201D38B02C01A5241430A8B4201D34B02C01A5241030A8B4201D30B0204
:4050C000C01A5241CDD2C3098B4201D3CB01C01A524183098B4201D38B01C01A524143098B4201D34B01C01A524103098B4201D30B01C01A5241C3088B4201D3CB00C01AFB
:40510000524183088B4201D38B00C01A524143088B4201D34B00C01A5241411A00D20146524110467047FFE701B5002000F0F0F802BDC0460029F7D076E7704703460B430C
:405140007FD4002243088B4274D303098B425FD3030A8B4244D3030B8B4228D3030C8B420DD3FF22090212BA030C8B4202D31212090265D0030B8B4219D300E0090AC30B38
:405180008B4201D3CB03C01A5241830B8B4201D38B03C01A5241430B8B4201D34B03C01A5241030B8B4201D30B03C01A5241C30A8B4201D3CB02C01A5241830A8B4201D33F
:4051C0008B02C01A5241430A8B4201D34B02C01A5241030A8B4201D30B02C01A5241CDD2C3098B4201D3CB01C01A524183098B4201D38B01C01A524143098B4201D34B0141
:40520000C01A524103098B4201D30B01C01A5241C3088B4201D3CB00C01A524183088B4201D38B00C01A524143088B4201D34B00C01A5241411A00D201465241104670475B
:405240005DE0CA0F00D04942031000D34042534000229C4603098B422DD3030A8B4212D3FC22890112BA030A8B420CD3890192118B4208D3890192118B4204D389013AD0BF
:40528000921100E08909C3098B4201D3CB01C01A524183098B4201D38B01C01A524143098B4201D34B01C01A524103098B4201D30B01C01A5241C3088B4201D3CB00C01A30
:4052C000524183088B4201D38B00C01A5241D9D243088B4201D34B00C01A5241411A00D20146634652415B10104601D34042002B00D54942704763465B1000D3404201B580
:40530000002000F005F802BD0029F8D016E770477047C0468446101C62468C46191C634600E0C0461FB500F0D7F8002801D40021C8421FBD10B500F02BF84042013010BD1C
:4053400010B500F0C9F8002801DB002010BD012010BDC04610B500F0BFF8002801DD002010BD012010BDC04610B500F051F8002801DC002010BD012010BDC04610B500F0E6
:4053800047F8002801DA002010BD012010BDC046F0B55F4656464D464446F0B41F035C00DB0F9A46194B0E034D00C90F8046360B6D0D8B4691463F0B640D9D4219D0134B37
:4053C0009C421BD00123A54206D018003CBC90469946A246AB46F0BDBE42F6D1C845F4D1D34510D0002DF0D1304303005A1E9341EBE7310001230143E7D1E0E73A430123EC
:40540000002AE2D1DEE70023DFE7C046FF070000F0B55F46444656464D46F0B41F033C0B2C4F0E034D00A3465C008446360B6D0DC90F9046640DDB0FBD422BD0254FBC42AD
:405440002ED0002D0ED130430700814678427841002C17D15F463A4314D14B460020002B0AD006E0002C02D15846024301D099421AD00123484218433CBC90469946A246A1
:40548000AB46F0BD0028F2D058425841012240421043F1E737000743D0D002204042EBE75F461743CDD0F8E7A542E2DC05DB5E45DFD808D000205E45DED2484248410123EE
:4054C00040421843D8E7C445D3D80020C445F4D3D2E7C046FF070000F0B55F464D4644465646F0B41C03240BA4462F4C0F034D005E00C90F80463F0B6D0D8B469146760D03
:40550000DB0FA54220D0284CA64222D0002D12D1384344424441002E20D0002C0DD05C42634101245B421C4320003CBC90469946A246AB46F0BD002E17D05B4519D05B46AA
:405540005C4201231C43EFE7390002240143EBD1D9E7614602241143E6D1D7E761460A43DBD100240028DFD0E9E761460A43E4D1E5E7B54203DD01225C421443D4E7B542FE
:40558000CDDB6745DBD809D000246745CCD259464C426141012449420C43C5E7C845CED80024C845F3D3BFE7FF07000070B5002830D0C317C4185C40C50F200000F038F81A
:4055C000174B184A1B1AD21A1F2A18DD164AD21A9440002224035B05240B5B0D0021100024030A0D1205240B1443104A1B0514401C436400ED0764082C43210070BD21004D
:4056000091400A000B21081AC4405B052403240B5B0DE3E70025002300240022DEE7C0461E0400003304000013040000FFFF0F801C2101231B04984201D3000C10391B0A57
:40564000984201D3000A08391B09984201D30009043902A2105C40187047C04604030202010101010000000000000000014B18687047C046401100200E4B70B500251E002A
:405680000D4CE41AA410A54204D0AB00F35898470135F8E714F032F8084B00251E00084CE41AA410A54204D0AB00F35898470135F8E770BD089701000897010008970100BE
:4056C0001097010030B50024A24208D0035D651C0C5DA34201D0181B02E02C00F4E7002030BD002310B59A4203D0CC5CC4540133F9E710BD03008218934202D0197001335B
:40570000FAE77047134A1088810703D08107890F401A001D11791030484381B25088820703D08207920F801A001D800040180A494030098980B2CA0701D0503080B289070A
:4057400006D504495422091F09785143081880B270470000760D0020D011002010B501F011FF10BD10B501F013FF10BD10B500F05BFA10BD10B50749044609780220002977
:4057800007D1204601F054FF002802D120460CF003F910BD220F002070B504460120002C12D02368002B0FD0616800290CD0074D06222889208118462968FFF792FF6968DA
:4057C000606809780170002070BD0000D0110020FFB585B0002768460E9D07734F481C460078002802D0082009B0F0BD10990F9801900095029105A807C800F007F9002828
:40580000F2D16946264603AB84460873002C19D0002115E08A00B75A082F09D990198078002805D0083FB7521878401C187005E0002914D00027B75290198770491CC9B2B4
:40584000A942E7D360460028CED10F98002809D0109901F047FA002804D00120C4E701208446EFE701F094FE2D480021416081600599016021888180022D07D3A1798171B1
:40588000A17AC171A1890181218A418100211EE0481C19E082008B00A75AE65ABE46BE4211D26F463E80B4461E190296B678BE7001967646E6521719029EBB78B3706646DC
:4058C000A652019EBE70401CA842E3D3491CA942DED3134822460C3000906846037B0799069800F01BF90028B8D168460B4C007B60700B480C3001F07BFE0028AED10849F7
:4059000007480C3108F090FF0028A7D108F0AAFF0028A3D10121217066E70000700D0020C4110020F8B5054636480F460078002802D002242046F8BD002F60D00024324969
:40594000002D16D02A89D0070DD02868002808D003881B3BE12B04D24088FB2801D81B2801D2012409E0900707D56868002804D1F7E70020088108604860002CDAD122485A
:405980002E8906811F481B21801D01804180042101711C490020891C0870F00705D019480622801D2968FFF79CFE1749B00703D56A68144812788270124D0E46AD1D281F7E
:4059C0000D60486001F05AFE284601F049FE30890FF0A6FF30890FF041F828880FF044F8308910F01DF903461033FFF78BFE1F21C018890140183880A91F88809AE7012468
:405A000098E70000700D0020D0110020FFB58446384F1C460020BB883F78054602460646002F11D100290ED0029999420BD36146002908D0002C06D00A99002906D02E4BB8
:405A40000B99994202D2012004B0F0BD002144E0AB001F19BF78002F3BD0E35A002B38D07B43591889B22B0000F04AF8050410161C253100A7782388BC46FF27233BEB376E
:405A8000BB4222D26346032B1FD322E0A388002B1FD0302B19D31CE02389002B19D0282B13D316E0A289002A13D01346134F233BBB420AD20DE0268A002A0AD033460F4F11
:405AC000233BBB4201D2964203D901200EE0002001E000280AD16D1CEDB2099B9D42B7D31C2463435B1802998B42ACD89642AAD8AAE70000700D002079020000BAFF00007B
:405B000030B47446641E2578641CAB4200D21D46635D5B00E31830BC18470000FFB583B0002469460C801F4606468C80002806D00598002803D004983043800701D0012480
:405B400066E0002FFBD03449049809888842F6D3FFF760F9FFF746F900F016FC002855D100F07EFD002851D12C49084601F0EEF805042D0C4AD12A48049906608180002191
:405B8000C18007810C98007AC00704D0684601F018FD040007D10C98007A800703D501A801F018FD0446BF1DFEB2002C20D13146059800F05DF804001AD110F03FF8040031
:405BC00016D16A461088928808368518144AF1B29088D288AEB29319984207D3401B801A80B201F0A3FB050007D000E0FF25012400F062FA002D04D008E0F8B200F01CF9AF
:405C0000F6E700F085FA07490120087000F0CEFB204607B0F0BD0000740D00205D5D0000DC1100207C0D002010B503480078012801D101F01DFA10BD7C0D002070B5084B22
:405C40000446DA889E8803205518B54206D8186880182060D8884018D880002070BD0000DC1100200148008970470000DC110020F0B587B007460D46002089000090069109
:405C80006846FFF7DBFF844600285DD1304800990160002117E02E4B88001A680629115406D22C4C0419667882185670628805E0C419203CA67A8218567022891B68C0186C
:405CC000491C4280C9B2A942E5D300242DE0601CC2B2059025E01E4FA30039689600581840887118039604904E88B04217D938466F46FE80B6464F786E4677710297049F6B
:405D00004F800168039F5E18767879184E700168764659184E800068029F18184770521CD2B2AA42D7D30598C4B2AC42CFD36046002809D168460699FFF780FF84460028FB
:405D400002D1054900980860604607B0F0BD0000800D002030970100840D00207047000010B5002809D005494A68002A05D0011F08788000105801F087FA10BD800D0020E2
:405D800010B50446FFF76EFFC0B2801DA0420CD307484068002808D0A100405801F0E6F9002801D00470001D10BD002010BD0000800D0020F8B516460D460446FFF752FFC3
:405DC000C0B2801DA04203D20020C0430090F8BDB2B2E9B2684601F0EFF90099481C03D0024AA000526811500098F8BD800D0020F8B50746FFF736FF801DC6B20A49002071
:405E000005460C680DE06178002907D06188B94202D32078FFF7B4FF002804D1241D6D1CEDB2B542EFD3F8BD800D002010B5002801D0FFF795FF10BD70B506460948002566
:405E400004680BE06178002905D062882078121D0023FFF7AFFF241D6D1CEDB2B542F1D370BD0000800D0020FFB581B00A9F16000C4620D000F0F6F8054604281BD0002F29
:405E80000CD03846FFF7B4FF20492A0151184860002810D03A460499FFF723FC1B4928010E504618778101980570200406D47D20C000444304E0FF2005B0F0BD6404640C92
:405EC00000F0BEF80746042807D000F053FAA0420BD800F04FFA201A03E0204600F0AEFA0020F06035720020E6E700F043FA009000F0BAFA00980121001B009000F0F0F8B4
:405F000002493A0151180098C860E6E7E8110020F8B5042801D3FF20F8BD060116483418217A042903D0E068002802D017E00020F8BD00F01FFA054600F096FA00F0A0F895
:405F400004280CD001010C480F18F8680021451900F0C6F80020F860284600F06FFA6068054D002801D0FFF761FF042020720020A8516081E060DAE7E8110020FEB50026C4
:405F80006A46304601232549050169180D7A042D02D0C96800291BD000211154401CC0B20428F0D300246846005D002830D01B482101081841894768056802910021016099
:405FC0004160042241810272C160002E02D015E01354E3E700F054F804280ED001010F4808180190C6680021304600F079F801980021C160304600F021FA0126002D07D060
:4060000038460299A847002F02D03846FFF70EFF641CE4B2042CC6D3FEBD0000E81100200EB5002005216A4600901181508103486946006810F099FC0EBD0000880D002000
:40604000074A0020010189180B7A042B02D0C968002903D0401CC0B20428F3D370470000E81100200549002002015218127A042A03D0401CC0B20428F6D37047E8110020CE
:4060800030B50A4B04200A4C00210A011219157A042D06D0D268002A03D09A4201D808461346491CC9B20429EFD330BDFFFF0000E81100207047000030B50020074C05467F
:4060C0000423020111190B72A5504D60401C4D81C0B2CD600428F4D330BD0000E811002030B5094C00231A011219157A042D04D0D568002906D02D18D5605B1CDBB2042B4B
:40610000F1D330BD2D1AF7E7E8110020002070471CB5002469460C70142001902346054A054810F027FC04480068401C00D1FF2420461CBD8D610000880D00203EB5124A57
:406140000146FF2000230124126800290DD0012914D0042908D104206946009308814B81104610F002FC80B23EBD68460093048143816946104610F0F3FBF4E76846009308
:40618000048143816946EBE7880D002070B545890468416800890300FFF7B2FC08280509091E22282628002007F04EF81EE0022908D0C8B22A4621460EF0A4FB2046FFF783
:4061C00035FE13E002202A4621460EF09BFB2946204600F00DF809E0002010F0C5F805E02046FFF7CBFE01E0FEF794FE002070BD014B0022DB6818478C0D002070B54489E2
:4062000005680089022803D0032809D0FF2070BD2246094C0023A46829460120A04708E0FFF7A0FA241DA2B200232946022008F0AEF9002070BD00008C0D0020704700009B
:406240000248002141600180418070478C0D002070B50C46002186B016460391012802D0022859D116E003A9012008F0E5F901281BD1039D324621462846FFF732FA009501
:40628000287801900220694608814E816846FFF7B5FF41E0214D002B686809D0049004A9022008F0C9F901281DD0022006B070BD002812D0298840182146FFF712FA288865
:4062C0000024801980B228806988091D884206D12C801348FFF792FF03E00320E6E788421AD96C6018E004986860E278A378110219430B4A698000231060E3565360032342
:4063000013815181A1788170E178C1706178417021780170042028800020C7E78C0D0020281200203EB515460C46022803D004280CD000203EBD00910190022069460881E6
:4063400007484A81006810F010FB07E00EF0DAFA044B0022DB6829462046984701203EBD880D00208C0D0020014AD160906070478C0D0020034801688068081A0A21484395
:40638000000970473412002010B5FEF733FD4C2204490548FFF7A5F903490120C870002010BD00004C9701003816002010B5FEF711FD10BD70B5134C2368002B08D0207B0B
:4063C0001149C20705D04008400020738868A08070BD88680B4AA18880B29268814203D90A4D691A091802E0814202D2411A5118A160A080A0689842EAD310F0D3FA00F05F
:4064000013F870BD34120020C0102E40FFFF000010B508461946FFF7A7FF10BD704710B5FFF780FF10BD000003480021016041608160C1607047000034120020024610B54F
:40644000FF20002A0CD0FFF7EFFF064C0321207B0843207310010A21FEF76CFE2060002010BD00003412002000B504480A21806848430209FFF7D8FF104600BD34120020C6
:406480000248007B8007C00F704700003412002010B54B490868002802DA4A4B01221A70022290430860484800694549C00B4031096A0246C907C90F0A4259D0012000F08A
:4064C00097FA3F480E216C30FEF78EFB3E4820218430FEF789FB3C4814219C30FEF784FB3948FF21C131A430FEF77EFB3648FF212F31B030FEF778FB33483449BC30FEF75A
:4065000073FB31483249AC30FEF76EFB30492E48491CB430FEF768FB2B482E49B830FEF763FB29482C49CC30FEF75EFB26482B490830FEF759FB24482949A830FEF754FB7D
:40654000214828498830FEF74FFB1F4826498C30FEF74AFB1C481921C9029030FEF744FBFEF752FBFEF762FCC0B2022812D01FE000290BD0002101420AD0114801216030C2
:40658000FEF732FB0120FEF719FC97E70121F2E7FF2010BD15491648FEF726FB14481549001DFEF721FB124800210830FEF71CFB54200449C043891C0870002010BD0000E2
:4065C00000F02E409C0D002000002E40320300002F3F00003102000010520000EC160000FA12000031D000003AE300009956000080012E40F80F000070B50646581C80B2A6
:4066000045086D00002408E0304600F0C1F81055000A1119A41C4870A4B2AC42F4D3D80705D0D0182038D15CC47FD454C17770BD30B50A4C002100195B1E07E0541864784B
:406640002502545C2C430480891C89B29942F5DB994201D1515C018030BD000000102E4010B5FF2000F0C4F90F49FF2048700E481021801D41800121417001700A49002023
:40668000C91C4870FFF704FF04000AD100F010F907210648FEF798FA044807211830FEF793FA204610BD00009C0D0020CC112E4070B5002405465B1E0AE0284600F068F835
:4066C000010A161971702D1D1055A41CADB2A4B29C42F2DB9C4203D1284600F059F8105570BD000070B500210A4D5B1E0AE0541864782602545C344346193480001D891C51
:4067000080B289B29942F2DB994202D1515C4019018070BD00102E40F0B50599091FCFB200217E1E0BE0541864782502545C2C43164D45192C80001D891C80B289B2B142B3
:40674000F1DBFC0712D01C78515C24020F4A0C4381180C809C785D78001D210280B2294384182180001D80B2D9780CE059781A7809021143054A84182180001DD9789B78D5
:40678000090280B2194380180180F0BD00102E40014940180088704700102E4010B50B490020487000F084F8002000F047F9002000F034F907210648FEF706FA04480721D4
:4067C0001830FEF701FA002010BD00009F0D0020CC112E4010B50B46062812D006DC01280CD0032801D1FFF7D9FF10BD0A28FCD00B28FAD105480078107010BDFFF730FF85
:4068000010BD1146184600F035F910BDA20D0020F8B5244DAC6A0127A007234E002816DA307806280ED1286A384328621F480069F903084381B21D481030FEF7D5F904206E
:4068400000F0D6F8174802212830FEF7BDF9E00718D000F01FFF01280FD1002000F06CFF062000F0C5F81049FF20C91E48707078002802D1686B384368630A4801212830C2
:40688000FEF7A2F9E0050BD53078042802D1052000F0AEF80348FF2101312830FEF794F9F8BD000040F02E409F0D002000002E4010B503212348FEF797F90120FEF76EFAC6
:4068C00020483038406A204C80076178800F890001431C480C38FEF787F96078002808D0401E022181401820FEF70EFDC000083800E0B82081B21548FEF776F9134803215C
:4069000009021438FEF770F910481149B830FEF76BF9612189010F48FEF766F90D480321001FFEF761F90C490C48FEF75DF90B480B496038FEF758F9084801218838FEF771
:4069400053F910BD70F02E40A20D0020D8102E4090890000041E2E40FF0F000058122E40209000000848017806290BD140780749002803D1486B400840004863C86A0122B9
:406980001043C862704700009F0D002040F02E4001480078704700009F0D002000B50300FFF7AEF8080D050D0B070507090D012000BD032000BD042000BD022000BDFF20A9
:4069C00000BD0000074A9168D26889B2064B92B2994204D105498A4201D1012100E000210170704780002E4033D000003FE3000010B50446FEF7F6F9072C01D9FF2C01D18F
:406A000002480470FEF7E6F910BD00009F0D002001494870704700009C0D002010B5064A012805D01921C9021046FEF7DDF810BD1D21C902F8E7000090002E4010B50A4AA5
:406A4000141D012808D009491046FEF7CDF808492046FEF7C9F810BD04491046891CFEF7C3F80349491DF3E788002E4031D000003AE3000070B50C460546FEF7D7F9C0B2B7
:406A800002280E49287804D0FF2810D04C280CD810E0FF2809D10A4AD0680004800F032801D0087807E09069000A553803E00878207070BD4F382070087070BD9E0D0020D8
:406AC00000002E40F0B50122002834D0002932D00424420600D00524792342065B06D21800D0641C034600221EE00C2516466E43124D00277519AF72104F002ABB516960E7
:406B000007D0661EB24209D10D4E86197606760E05E05E06760E8027BE1B00E080269B198919521C2E81D2B2A242DED303480549006B002288611046F0BD0000C0140020CD
:406B400079020000A80D002018B50020694608700A48006900280ED0132149014018047E684604704F21C900054800F05BF8A04201D0012018BD002018BD0000A80D00203A
:406B800044120020074900200C2242435218927A012A05D0401CC0B20628F5D30020704701207047C0140020F8B50F000446164609D01A4D1A496868A04202D94018A04293
:406BC00001D38E4201D90120F8BD39462046FEF779FD002820D0324639462046FEF781FD0E49F0B2012620318E7600210C220B4653430A4A9A1813895568EF18A74207D92F
:406C0000641B1B1B9672834206DAC01A1469C0B2491CC9B20629E9D30020F8BDC014002079020000034610B50020024604E09C5C2018521CC0B292B28A42F8D310BD000008
:406C400070B500F05FF8084C064A216907480D46FEF747FD05492846FFF734FFFFF774FF207070BD79020000A80D002044120020002070470020054A002902D0012902D091
:406C800002E0906000E0D06000207047A80D002070B5084C154608460549E26889182A46FEF71FFDE0684019E06028B270BD000044120020A80D00203EB50A226946FFF773
:406CC000E7FF044606480A2200686946FEF7FAFC002802D00020C0433EBD20463EBD0000AC0D0020002802D0044A914201D2FF20704703494A610861002070477902000020
:406D0000A80D0020024800218160C16070470000A80D002070B5074C15460548A26880182A46FFF741FFA0684019A06028B270BD44120020A80D002010B503490A220968BC
:406D4000FFF7E8FF10BD0000AC0D002010B50F4A002313600E4A13600E4B18600E4801600E49012008600E490860000290600E490C4808600D4914300860FF3815385060AF
:406D800000F0BCF800F0CAF9002010BDDC0D0020C40D0020F00D0020F40D0020E00D0020D00D002008160020D40D0020E80D0020014610B50020002910D0094B1A689C68EA
:406DC0005118A14209D25868196080188A0704D08A07920F891A091D196010BD002010BDC40D0020F8B50024164E671E321F3D463168136806E01422624310328A58521C22
:406E00001BD0641C9C42F6D36A1C14D02C461422544322460C3288500C214843FFF7C8FF3168002808510AD031680020103408517068401C70602846F8BD2546E4E738467F
:406E4000F8BD0000D40D0020F3B50026F64381B000281BDB1E490968884217D80299002914D01B4F142204463F1D54432546396810354859401C09D0FDF7B4FF38682F1F34
:406E80004159C359994203DBFDF7A4FF3046FEBD214608310091465801590C20704308180C220299FEF71DFC0948761C001D0068C159B14200D100260549009A091D86504C
:406EC00008684159491C4151FDF784FF0020FEBDD00D0020002803DB07490968884202D90020C043704704491422091D096850431030085870470000D00D0020F0B5002036
:406F00000D4A451E0346171F50600FE014260146714314680E1DA3510C461668083433511668083435511468401C635039688842ECD30020F0BD0000D40D0020F3B5002688
:406F4000F64381B0002841DB2349096888423DD8029900293AD0204F142204463F1D54432546396810354859401C2FD0FDF73AFF3868415900292BD0211D009146580C2185
:406F8000005971430F46C1190C220298FEF7A9FB11480021001D0068761C00590C34C0190160416081600C48001D00680159B14200D100260849009A091D86500868415940
:406FC000491E4151FDF706FF0020FEBD3046FEBDFDF700FFFAE70000D00D0020FEB504460D4600201E49089E0860471E009001900290002C11D0486885420ED2002A0CD05B
:40700000002E0AD0642E08D808460C3001681C2068430C18207A002801D03846FEBD0120226020721846FFF7DDFE6060401C13D06681A6810A4827610C3067610179A94258
:4070400000D205710021684601810A462846029B00F040F82846FEBD00202072DDE70000DC0D002038B50124009400F039F838BDFEB50027164EFF433D4600240EE01C203F
:40708000316860430818017A002906D04068FFF721FF002801D0254603E0641C3079A042EDDA681C12D01C2130684D434419FDF799FE69466068FFF741FF0546FDF78AFEFC
:4070C000002DD9D1216868468847D5E7FEBD0000E80D002038B50024009400F001F838BD1FB500220C49541E0A60002811DB496888420ED808491C220C3109685043081818
:40710000406801A9FFF7A0FE401C02D0002004B010BD2046FBE70000DC0D0020F0B50021114A4D1E174611710C3F0B46BD6016E008461C2460431668041D35511468064611
:40714000235014680836A3551468361DA353044616680A34335318301468491C255078688142E5D30020F0BDE80D002038B500210091002811DB0F49097888420DDA0D4D27
:4071800004010C3529680859002807D0201D0818694600F06FF9002801D0002038BDFDF721FE28680F34015D491E0155FDF712FE009838BDF80D0020F7B582B000250298D2
:4071C0006E1E06602E48D21C024017462D4A2C4610460C380178106805E02301C358002B0FD0641CE4B28C42F7D3711C28D03401211D40180191039900F02AF900281FD1A1
:4072000001E02646F1E71F48016820460C300F521C480399026820460E30115419480399026820460F3011540398784300F0A0F8144900280968085102D00024009011E0CE
